{"abi":[{"type":"constructor","inputs":[{"name":"_masterKey","type":"address","internalType":"address"},{"name":"_recoveryKey","type":"address","internalType":"address"},{"name":"_owner","type":"address","internalType":"address"},{"name":"_delegatedAccountImpl","type":"address","internalType":"address"}],"stateMutability":"nonpayable"},{"type":"function","name":"delegatedAccountCodeHash","inputs":[],"outputs":[{"name":"","type":"bytes32","internalType":"bytes32"}],"stateMutability":"view"},{"type":"function","name":"emergencyResetNonce","inputs":[{"name":"user","type":"address","internalType":"address"},{"name":"newNonce","type":"uint256","internalType":"uint256"}],"outputs":[],"stateMutability":"nonpayable"},{"type":"function","name":"getAuthorizationHash","inputs":[{"name":"user","type":"address","internalType":"address"},{"name":"authData","type":"tuple","internalType":"struct TargetBase.AuthData","components":[{"name":"nonce","type":"uint256","internalType":"uint256"},{"name":"expiry","type":"uint256","internalType":"uint256"},{"name":"id","type":"bytes32","internalType":"bytes32"},{"name":"executions","type":"tuple[]","internalType":"struct TargetBase.Execution[]","components":[{"name":"id","type":"bytes32","internalType":"bytes32"},{"name":"request","type":"bytes","internalType":"bytes"},{"name":"response","type":"bytes","internalType":"bytes"}]},{"name":"result","type":"bytes","internalType":"bytes"},{"name":"sponsorExecutionFee","type":"bool","internalType":"bool"},{"name":"signature","type":"bytes","internalType":"bytes"}]},{"name":"selector","type":"bytes4","internalType":"bytes4"}],"outputs":[{"name":"","type":"bytes32","internalType":"bytes32"}],"stateMutability":"pure"},{"type":"function","name":"getCodeHash","inputs":[{"name":"account","type":"address","internalType":"address"}],"outputs":[{"name":"","type":"bytes32","internalType":"bytes32"}],"stateMutability":"view"},{"type":"function","name":"getNonce","inputs":[{"name":"user","type":"address","internalType":"address"}],"outputs":[{"name":"","type":"uint256","internalType":"uint256"}],"stateMutability":"view"},{"type":"function","name":"isAuthorizationUsed","inputs":[{"name":"authHash","type":"bytes32","internalType":"bytes32"}],"outputs":[{"name":"","type":"bool","internalType":"bool"}],"stateMutability":"view"},{"type":"function","name":"isDelegatedAccount","inputs":[{"name":"account","type":"address","internalType":"address"}],"outputs":[{"name":"","type":"bool","internalType":"bool"}],"stateMutability":"view"},{"type":"function","name":"isDelegatedAccountSet","inputs":[],"outputs":[{"name":"","type":"bool","internalType":"bool"}],"stateMutability":"view"},{"type":"function","name":"masterKey","inputs":[],"outputs":[{"name":"","type":"address","internalType":"address"}],"stateMutability":"view"},{"type":"function","name":"nonces","inputs":[{"name":"","type":"address","internalType":"address"}],"outputs":[{"name":"","type":"uint256","internalType":"uint256"}],"stateMutability":"view"},{"type":"function","name":"owner","inputs":[],"outputs":[{"name":"","type":"address","internalType":"address"}],"stateMutability":"view"},{"type":"function","name":"recoveryKey","inputs":[],"outputs":[{"name":"","type":"address","internalType":"address"}],"stateMutability":"view"},{"type":"function","name":"renounceOwnership","inputs":[],"outputs":[],"stateMutability":"nonpayable"},{"type":"function","name":"setDelegatedAccountImplementation","inputs":[{"name":"implementation","type":"address","internalType":"address"}],"outputs":[],"stateMutability":"nonpayable"},{"type":"function","name":"transferOwnership","inputs":[{"name":"newOwner","type":"address","internalType":"address"}],"outputs":[],"stateMutability":"nonpayable"},{"type":"function","name":"updateMasterKey","inputs":[{"name":"newMasterKey","type":"address","internalType":"address"}],"outputs":[],"stateMutability":"nonpayable"},{"type":"function","name":"updateRecoveryKey","inputs":[{"name":"newRecoveryKey","type":"address","internalType":"address"}],"outputs":[],"stateMutability":"nonpayable"},{"type":"function","name":"usedAuthorizations","inputs":[{"name":"","type":"bytes32","internalType":"bytes32"}],"outputs":[{"name":"","type":"bool","internalType":"bool"}],"stateMutability":"view"},{"type":"event","name":"AuthorizationVerified","inputs":[{"name":"authorizer","type":"address","indexed":true,"internalType":"address"},{"name":"sender","type":"address","indexed":true,"internalType":"address"},{"name":"nonce","type":"uint256","indexed":false,"internalType":"uint256"},{"name":"dataHash","type":"bytes32","indexed":false,"internalType":"bytes32"}],"anonymous":false},{"type":"event","name":"DelegatedAccountSet","inputs":[{"name":"implementation","type":"address","indexed":true,"internalType":"address"},{"name":"codeHash","type":"bytes32","indexed":true,"internalType":"bytes32"}],"anonymous":false},{"type":"event","name":"MasterKeyUpdated","inputs":[{"name":"oldKey","type":"address","indexed":true,"internalType":"address"},{"name":"newKey","type":"address","indexed":true,"internalType":"address"},{"name":"updatedBy","type":"address","indexed":true,"internalType":"address"}],"anonymous":false},{"type":"event","name":"OwnershipTransferred","inputs":[{"name":"previousOwner","type":"address","indexed":true,"internalType":"address"},{"name":"newOwner","type":"address","indexed":true,"internalType":"address"}],"anonymous":false},{"type":"event","name":"RecoveryKeyUpdated","inputs":[{"name":"oldKey","type":"address","indexed":true,"internalType":"address"},{"name":"newKey","type":"address","indexed":true,"internalType":"address"}],"anonymous":false},{"type":"error","name":"AuthorizationAlreadyUsed","inputs":[]},{"type":"error","name":"AuthorizationExpired","inputs":[]},{"type":"error","name":"DelegatedAccountNotSet","inputs":[]},{"type":"error","name":"InvalidAddress","inputs":[]},{"type":"error","name":"InvalidImplementation","inputs":[]},{"type":"error","name":"InvalidNonce","inputs":[]},{"type":"error","name":"InvalidSignature","inputs":[]},{"type":"error","name":"NoCode","inputs":[]},{"type":"error","name":"OwnableInvalidOwner","inputs":[{"name":"owner","type":"address","internalType":"address"}]},{"type":"error","name":"OwnableUnauthorizedAccount","inputs":[{"name":"account","type":"address","internalType":"address"}]},{"type":"error","name":"ReentrancyGuardReentrantCall","inputs":[]},{"type":"error","name":"UnauthorizedCaller","inputs":[]}],"bytecode":{"object":"0x608060405234801561000f575f80fd5b50604051610c85380380610c8583398101604081905261002e91610256565b60015f55816001600160a01b03811661006057604051631e4fbdf760e01b81525f600482015260240160405180910390fd5b61006981610121565b506001600160a01b0384166100915760405163e6c4247b60e01b815260040160405180910390fd5b6001600160a01b0383166100b85760405163e6c4247b60e01b815260040160405180910390fd5b6001600160a01b0381166100df5760405163e6c4247b60e01b815260040160405180910390fd5b600280546001600160a01b038087166001600160a01b031992831617909255600380549286169290911691909117905561011881610172565b505050506102a7565b600180546001600160a01b038381166001600160a01b0319831681179093556040519116919082907f8be0079c531659141344cd1fd0a4f28419497f9722a3daafe3b4186f6b6457e0905f90a35050565b803f8015806101a057507fc5d2460186f7233c927e7db2dcc703c0e500b653ca82273b7bfad8045d85a47081145b156101be57604051633c11a9c560e21b815260040160405180910390fd5b60405161ef0160f01b60208201526001600160601b0319606084901b1660238201525f9060370160408051601f1981840301815290829052805160208201206006819055909250906001600160a01b038516907f5b1390f119226218b27296b195e4447b856827c4d713c7cb924a278080112e7c905f90a3505050565b80516001600160a01b0381168114610251575f80fd5b919050565b5f805f8060808587031215610269575f80fd5b6102728561023b565b93506102806020860161023b565b925061028e6040860161023b565b915061029c6060860161023b565b905092959194509250565b6109d1806102b45f395ff3fe608060405234801561000f575f80fd5b5060043610610111575f3560e01c80638da5cb5b1161009e578063b80a852c1161006e578063b80a852c14610258578063c99c35d81461026b578063d5a1780b1461027e578063daafc3a2146102a0578063f2fde38b146102b3575f80fd5b80638da5cb5b1461020e57806397905a881461021f578063ab17e33714610232578063ac1d92a114610245575f80fd5b806340110535116100e457806340110535146101a1578063715018a6146101aa5780637ecebe00146101b257806381ea4408146101d15780638afe35b9146101e3575f80fd5b806314335b8d146101155780632d0335ab1461014c5780632eb40090146101825780633dacd33c14610197575b5f80fd5b61013761012336600461068f565b5f9081526005602052604090205460ff1690565b60405190151581526020015b60405180910390f35b61017461015a3660046106c1565b6001600160a01b03165f9081526004602052604090205490565b604051908152602001610143565b6101956101903660046106c1565b6102c6565b005b6006541515610137565b61017460065481565b610195610346565b6101746101c03660046106c1565b60046020525f908152604090205481565b6101746101df3660046106c1565b3f90565b6002546101f6906001600160a01b031681565b6040516001600160a01b039091168152602001610143565b6001546001600160a01b03166101f6565b6003546101f6906001600160a01b031681565b6101956102403660046106c1565b610359565b6101746102533660046106da565b61036d565b6101376102663660046106c1565b610406565b6101956102793660046106c1565b610424565b61013761028c36600461068f565b60056020525f908152604090205460ff1681565b6101956102ae366004610748565b6104e1565b6101956102c13660046106c1565b610504565b6102ce610543565b6001600160a01b0381166102f55760405163e6c4247b60e01b815260040160405180910390fd5b600380546001600160a01b038381166001600160a01b0319831681179093556040519116919082907fc1ded5e7b2e884aee7a9307c075cf7a3c01d6fde38a5dcc91e833fe602c70199905f90a35050565b61034e610543565b6103575f610570565b565b610361610543565b61036a816105c1565b50565b5f838335602085013560408601356103886060880188610770565b604051602001610399929190610827565b60408051601f1981840301815291905280516020909101206103be60808901896108d7565b6103ce60c08b0160a08c0161091a565b896040516020016103e799989796959493929190610939565b6040516020818303038152906040528051906020012090509392505050565b6006545f90823f908114801561041d575060065415155b9392505050565b6001546001600160a01b0316331480159061044a57506003546001600160a01b03163314155b1561046857604051635c427cd960e01b815260040160405180910390fd5b6001600160a01b03811661048f5760405163e6c4247b60e01b815260040160405180910390fd5b600280546001600160a01b038381166001600160a01b031983168117909355604051911691339183907fb659f04626597961e33b3345b88799f112d62f49db80f9dfced83f1db86059b5905f90a45050565b6104e9610543565b6001600160a01b039091165f90815260046020526040902055565b61050c610543565b6001600160a01b03811661053a57604051631e4fbdf760e01b81525f60048201526024015b60405180910390fd5b61036a81610570565b6001546001600160a01b031633146103575760405163118cdaa760e01b8152336004820152602401610531565b600180546001600160a01b038381166001600160a01b0319831681179093556040519116919082907f8be0079c531659141344cd1fd0a4f28419497f9722a3daafe3b4186f6b6457e0905f90a35050565b803f8015806105ef57507fc5d2460186f7233c927e7db2dcc703c0e500b653ca82273b7bfad8045d85a47081145b1561060d57604051633c11a9c560e21b815260040160405180910390fd5b60405161ef0160f01b60208201526bffffffffffffffffffffffff19606084901b1660238201525f9060370160408051601f1981840301815290829052805160208201206006819055909250906001600160a01b038516907f5b1390f119226218b27296b195e4447b856827c4d713c7cb924a278080112e7c905f90a3505050565b5f6020828403121561069f575f80fd5b5035919050565b80356001600160a01b03811681146106bc575f80fd5b919050565b5f602082840312156106d1575f80fd5b61041d826106a6565b5f805f606084860312156106ec575f80fd5b6106f5846106a6565b9250602084013567ffffffffffffffff811115610710575f80fd5b840160e08187031215610721575f80fd5b915060408401356001600160e01b03198116811461073d575f80fd5b809150509250925092565b5f8060408385031215610759575f80fd5b610762836106a6565b946020939093013593505050565b5f808335601e19843603018112610785575f80fd5b83018035915067ffffffffffffffff82111561079f575f80fd5b6020019150600581901b36038213156107b6575f80fd5b9250929050565b5f808335601e198436030181126107d2575f80fd5b830160208101925035905067ffffffffffffffff8111156107f1575f80fd5b8036038213156107b6575f80fd5b81835281816020850137505f828201602090810191909152601f909101601f19169091010190565b60208082528181018390525f906040808401600586901b8501820187855b888110156108c957878303603f190184528135368b9003605e1901811261086a575f80fd5b8a0180358452606061087e888301836107bd565b828a88015261089083880182846107ff565b925050506108a0878301836107bd565b9250858203888701526108b48284836107ff565b96890196955050509186019150600101610845565b509098975050505050505050565b5f808335601e198436030181126108ec575f80fd5b83018035915067ffffffffffffffff821115610906575f80fd5b6020019150368190038213156107b6575f80fd5b5f6020828403121561092a575f80fd5b8135801515811461041d575f80fd5b6bffffffffffffffffffffffff198a60601b1681528860148201528760348201528660548201528560748201528385609483013791151560f81b9290910160948101929092526001600160e01b0319166095820152609901969550505050505056fea2646970667358221220ed91b427916751f8f1f210e7198ca989ebc0cfacdf2f9d91de4d51977412f24d64736f6c63430008170033","linkReferences":{}},"methodIdentifiers":{"delegatedAccountCodeHash()":"40110535","emergencyResetNonce(address,uint256)":"daafc3a2","getAuthorizationHash(address,(uint256,uint256,bytes32,(bytes32,bytes,bytes)[],bytes,bool,bytes),bytes4)":"ac1d92a1","getCodeHash(address)":"81ea4408","getNonce(address)":"2d0335ab","isAuthorizationUsed(bytes32)":"14335b8d","isDelegatedAccount(address)":"b80a852c","isDelegatedAccountSet()":"3dacd33c","masterKey()":"8afe35b9","nonces(address)":"7ecebe00","owner()":"8da5cb5b","recoveryKey()":"97905a88","renounceOwnership()":"715018a6","setDelegatedAccountImplementation(address)":"ab17e337","transferOwnership(address)":"f2fde38b","updateMasterKey(address)":"c99c35d8","updateRecoveryKey(address)":"2eb40090","usedAuthorizations(bytes32)":"d5a1780b"},"id":50}