{"abi":[{"type":"constructor","inputs":[{"name":"_entryPoint","type":"address","internalType":"contract IEntryPoint"},{"name":"_feeRecipient","type":"address","internalType":"address"}],"stateMutability":"nonpayable"},{"type":"fallback","stateMutability":"payable"},{"type":"receive","stateMutability":"payable"},{"type":"function","name":"FEE_RECIPIENT","inputs":[],"outputs":[{"name":"","type":"address","internalType":"address"}],"stateMutability":"view"},{"type":"function","name":"_decodePurchaseTokens","inputs":[{"name":"data","type":"bytes","internalType":"bytes"}],"outputs":[{"name":"sponsorship","type":"bool","internalType":"bool"}],"stateMutability":"pure"},{"type":"function","name":"_decodeSubmitPropertyAnalysis","inputs":[{"name":"data","type":"bytes","internalType":"bytes"}],"outputs":[{"name":"sponsorship","type":"bool","internalType":"bool"}],"stateMutability":"pure"},{"type":"function","name":"batchUpdateDestinationWhitelist","inputs":[{"name":"destinations","type":"address[]","internalType":"address[]"},{"name":"whitelisted","type":"bool[]","internalType":"bool[]"}],"outputs":[],"stateMutability":"nonpayable"},{"type":"function","name":"delegate","inputs":[],"outputs":[{"name":"","type":"address","internalType":"address"}],"stateMutability":"view"},{"type":"function","name":"entryPoint","inputs":[],"outputs":[{"name":"","type":"address","internalType":"contract IEntryPoint"}],"stateMutability":"view"},{"type":"function","name":"execute","inputs":[{"name":"dest","type":"address","internalType":"address"},{"name":"value","type":"uint256","internalType":"uint256"},{"name":"func","type":"bytes","internalType":"bytes"}],"outputs":[],"stateMutability":"nonpayable"},{"type":"function","name":"execute","inputs":[{"name":"dest","type":"address","internalType":"address"},{"name":"value","type":"uint256","internalType":"uint256"},{"name":"func","type":"bytes","internalType":"bytes"},{"name":"feeUsdcAmount","type":"uint256","internalType":"uint256"},{"name":"usdcPerEth","type":"uint256","internalType":"uint256"}],"outputs":[],"stateMutability":"nonpayable"},{"type":"function","name":"executeBatch","inputs":[{"name":"dest","type":"address[]","internalType":"address[]"},{"name":"func","type":"bytes[]","internalType":"bytes[]"}],"outputs":[],"stateMutability":"nonpayable"},{"type":"function","name":"executeBatch","inputs":[{"name":"dest","type":"address[]","internalType":"address[]"},{"name":"value","type":"uint256[]","internalType":"uint256[]"},{"name":"func","type":"bytes[]","internalType":"bytes[]"}],"outputs":[],"stateMutability":"nonpayable"},{"type":"function","name":"executeBatch","inputs":[{"name":"dest","type":"address[]","internalType":"address[]"},{"name":"func","type":"bytes[]","internalType":"bytes[]"},{"name":"feeUsdcAmount","type":"uint256","internalType":"uint256"},{"name":"usdcPerEth","type":"uint256","internalType":"uint256"}],"outputs":[],"stateMutability":"nonpayable"},{"type":"function","name":"getFeeParameters","inputs":[],"outputs":[{"name":"minFee","type":"uint256","internalType":"uint256"},{"name":"maxFee","type":"uint256","internalType":"uint256"},{"name":"hardCap","type":"uint256","internalType":"uint256"}],"stateMutability":"view"},{"type":"function","name":"getNonce","inputs":[],"outputs":[{"name":"","type":"uint256","internalType":"uint256"}],"stateMutability":"view"},{"type":"function","name":"hardFeeCap","inputs":[],"outputs":[{"name":"","type":"uint256","internalType":"uint256"}],"stateMutability":"view"},{"type":"function","name":"initialize","inputs":[{"name":"_owner","type":"address","internalType":"address"},{"name":"_delegate","type":"address","internalType":"address"},{"name":"_minExchangeRate","type":"uint256","internalType":"uint256"},{"name":"_maxExchangeRate","type":"uint256","internalType":"uint256"},{"name":"_minRequiredFee","type":"uint256","internalType":"uint256"},{"name":"_maxFeePerTransaction","type":"uint256","internalType":"uint256"}],"outputs":[],"stateMutability":"nonpayable"},{"type":"function","name":"initialize","inputs":[{"name":"anOwner","type":"address","internalType":"address"}],"outputs":[],"stateMutability":"nonpayable"},{"type":"function","name":"initializeWithConfig","inputs":[{"name":"config","type":"tuple","internalType":"struct Delegated7702Account.AccountConfig","components":[{"name":"owner","type":"address","internalType":"address"},{"name":"delegate","type":"address","internalType":"address"},{"name":"minExchangeRate","type":"uint256","internalType":"uint256"},{"name":"maxExchangeRate","type":"uint256","internalType":"uint256"},{"name":"minRequiredFee","type":"uint256","internalType":"uint256"},{"name":"maxFeePerTransaction","type":"uint256","internalType":"uint256"},{"name":"initialDestinations","type":"address[]","internalType":"address[]"},{"name":"destinationStatuses","type":"bool[]","internalType":"bool[]"}]}],"outputs":[],"stateMutability":"nonpayable"},{"type":"function","name":"isDestinationWhitelisted","inputs":[{"name":"destination","type":"address","internalType":"address"}],"outputs":[{"name":"whitelisted","type":"bool","internalType":"bool"}],"stateMutability":"view"},{"type":"function","name":"isInitialized","inputs":[],"outputs":[{"name":"","type":"bool","internalType":"bool"}],"stateMutability":"view"},{"type":"function","name":"isValidSignature","inputs":[{"name":"hash","type":"bytes32","internalType":"bytes32"},{"name":"signature","type":"bytes","internalType":"bytes"}],"outputs":[{"name":"magicValue","type":"bytes4","internalType":"bytes4"}],"stateMutability":"view"},{"type":"function","name":"isWhitelistedDestination","inputs":[{"name":"","type":"address","internalType":"address"}],"outputs":[{"name":"","type":"bool","internalType":"bool"}],"stateMutability":"view"},{"type":"function","name":"maxExchangeRate","inputs":[],"outputs":[{"name":"","type":"uint256","internalType":"uint256"}],"stateMutability":"view"},{"type":"function","name":"maxFeePerTransaction","inputs":[],"outputs":[{"name":"","type":"uint256","internalType":"uint256"}],"stateMutability":"view"},{"type":"function","name":"minExchangeRate","inputs":[],"outputs":[{"name":"","type":"uint256","internalType":"uint256"}],"stateMutability":"view"},{"type":"function","name":"minRequiredFee","inputs":[],"outputs":[{"name":"","type":"uint256","internalType":"uint256"}],"stateMutability":"view"},{"type":"function","name":"onERC1155BatchReceived","inputs":[{"name":"","type":"address","internalType":"address"},{"name":"","type":"address","internalType":"address"},{"name":"","type":"uint256[]","internalType":"uint256[]"},{"name":"","type":"uint256[]","internalType":"uint256[]"},{"name":"","type":"bytes","internalType":"bytes"}],"outputs":[{"name":"","type":"bytes4","internalType":"bytes4"}],"stateMutability":"nonpayable"},{"type":"function","name":"onERC1155Received","inputs":[{"name":"","type":"address","internalType":"address"},{"name":"","type":"address","internalType":"address"},{"name":"","type":"uint256","internalType":"uint256"},{"name":"","type":"uint256","internalType":"uint256"},{"name":"","type":"bytes","internalType":"bytes"}],"outputs":[{"name":"","type":"bytes4","internalType":"bytes4"}],"stateMutability":"nonpayable"},{"type":"function","name":"onERC721Received","inputs":[{"name":"","type":"address","internalType":"address"},{"name":"","type":"address","internalType":"address"},{"name":"","type":"uint256","internalType":"uint256"},{"name":"","type":"bytes","internalType":"bytes"}],"outputs":[{"name":"","type":"bytes4","internalType":"bytes4"}],"stateMutability":"nonpayable"},{"type":"function","name":"owner","inputs":[],"outputs":[{"name":"","type":"address","internalType":"address"}],"stateMutability":"view"},{"type":"function","name":"supportsInterface","inputs":[{"name":"interfaceId","type":"bytes4","internalType":"bytes4"}],"outputs":[{"name":"","type":"bool","internalType":"bool"}],"stateMutability":"pure"},{"type":"function","name":"updateDestinationWhitelist","inputs":[{"name":"destination","type":"address","internalType":"address"},{"name":"whitelisted","type":"bool","internalType":"bool"}],"outputs":[],"stateMutability":"nonpayable"},{"type":"function","name":"updateHardFeeCap","inputs":[{"name":"_hardCap","type":"uint256","internalType":"uint256"}],"outputs":[],"stateMutability":"nonpayable"},{"type":"function","name":"updateMaxExchangeRate","inputs":[{"name":"_maxRate","type":"uint256","internalType":"uint256"}],"outputs":[],"stateMutability":"nonpayable"},{"type":"function","name":"updateMaxFee","inputs":[{"name":"_maxFee","type":"uint256","internalType":"uint256"}],"outputs":[],"stateMutability":"nonpayable"},{"type":"function","name":"updateMinExchangeRate","inputs":[{"name":"_minRate","type":"uint256","internalType":"uint256"}],"outputs":[],"stateMutability":"nonpayable"},{"type":"function","name":"updateMinFee","inputs":[{"name":"_minFee","type":"uint256","internalType":"uint256"}],"outputs":[],"stateMutability":"nonpayable"},{"type":"function","name":"validateUserOp","inputs":[{"name":"userOp","type":"tuple","internalType":"struct PackedUserOperation","components":[{"name":"sender","type":"address","internalType":"address"},{"name":"nonce","type":"uint256","internalType":"uint256"},{"name":"initCode","type":"bytes","internalType":"bytes"},{"name":"callData","type":"bytes","internalType":"bytes"},{"name":"accountGasLimits","type":"bytes32","internalType":"bytes32"},{"name":"preVerificationGas","type":"uint256","internalType":"uint256"},{"name":"gasFees","type":"bytes32","internalType":"bytes32"},{"name":"paymasterAndData","type":"bytes","internalType":"bytes"},{"name":"signature","type":"bytes","internalType":"bytes"}]},{"name":"userOpHash","type":"bytes32","internalType":"bytes32"},{"name":"missingAccountFunds","type":"uint256","internalType":"uint256"}],"outputs":[{"name":"validationData","type":"uint256","internalType":"uint256"}],"stateMutability":"nonpayable"},{"type":"event","name":"DelegateUsed","inputs":[{"name":"delegate","type":"address","indexed":true,"internalType":"address"},{"name":"userOpHash","type":"bytes32","indexed":false,"internalType":"bytes32"}],"anonymous":false},{"type":"event","name":"DestinationWhitelistUpdated","inputs":[{"name":"destination","type":"address","indexed":true,"internalType":"address"},{"name":"whitelisted","type":"bool","indexed":false,"internalType":"bool"}],"anonymous":false},{"type":"event","name":"FeeCalculated","inputs":[{"name":"sender","type":"address","indexed":true,"internalType":"address"},{"name":"destination","type":"address","indexed":true,"internalType":"address"},{"name":"feeBreakdown","type":"tuple","indexed":false,"internalType":"struct Delegated7702Account.FeeBreakdown","components":[{"name":"protocolFee","type":"uint256","internalType":"uint256"},{"name":"executionFees","type":"tuple[]","internalType":"struct Delegated7702Account.ExecutionFee[]","components":[{"name":"id","type":"bytes32","internalType":"bytes32"},{"name":"fee","type":"uint256","internalType":"uint256"}]},{"name":"platformFee","type":"uint256","internalType":"uint256"},{"name":"reserved1","type":"uint256","internalType":"uint256"},{"name":"reserved2","type":"uint256","internalType":"uint256"},{"name":"reserved3","type":"uint256","internalType":"uint256"},{"name":"totalFee","type":"uint256","internalType":"uint256"}]}],"anonymous":false},{"type":"event","name":"FeeSponsored","inputs":[{"name":"sender","type":"address","indexed":true,"internalType":"address"},{"name":"destination","type":"address","indexed":true,"internalType":"address"},{"name":"sponsoredFees","type":"tuple","indexed":false,"internalType":"struct Delegated7702Account.FeeBreakdown","components":[{"name":"protocolFee","type":"uint256","internalType":"uint256"},{"name":"executionFees","type":"tuple[]","internalType":"struct Delegated7702Account.ExecutionFee[]","components":[{"name":"id","type":"bytes32","internalType":"bytes32"},{"name":"fee","type":"uint256","internalType":"uint256"}]},{"name":"platformFee","type":"uint256","internalType":"uint256"},{"name":"reserved1","type":"uint256","internalType":"uint256"},{"name":"reserved2","type":"uint256","internalType":"uint256"},{"name":"reserved3","type":"uint256","internalType":"uint256"},{"name":"totalFee","type":"uint256","internalType":"uint256"}]}],"anonymous":false},{"type":"event","name":"FeeSponsoredByMasterKey","inputs":[{"name":"feeRecipient","type":"address","indexed":true,"internalType":"address"},{"name":"feeAmount","type":"uint256","indexed":false,"internalType":"uint256"}],"anonymous":false},{"type":"event","name":"FeeTransferred","inputs":[{"name":"recipient","type":"address","indexed":true,"internalType":"address"},{"name":"amount","type":"uint256","indexed":false,"internalType":"uint256"}],"anonymous":false},{"type":"event","name":"Initialized","inputs":[{"name":"version","type":"uint64","indexed":false,"internalType":"uint64"}],"anonymous":false},{"type":"event","name":"MaxFeeUpdated","inputs":[{"name":"maxFee","type":"uint256","indexed":false,"internalType":"uint256"},{"name":"updatedBy","type":"address","indexed":true,"internalType":"address"}],"anonymous":false},{"type":"event","name":"MinFeeUpdated","inputs":[{"name":"minFee","type":"uint256","indexed":false,"internalType":"uint256"},{"name":"updatedBy","type":"address","indexed":true,"internalType":"address"}],"anonymous":false},{"type":"event","name":"Simple7702AccountV07Initialized","inputs":[{"name":"entryPoint","type":"address","indexed":true,"internalType":"contract IEntryPoint"},{"name":"owner","type":"address","indexed":true,"internalType":"address"}],"anonymous":false},{"type":"error","name":"DestinationNotWhitelisted","inputs":[{"name":"destination","type":"address","internalType":"address"}]},{"type":"error","name":"ECDSAInvalidSignature","inputs":[]},{"type":"error","name":"ECDSAInvalidSignatureLength","inputs":[{"name":"length","type":"uint256","internalType":"uint256"}]},{"type":"error","name":"ECDSAInvalidSignatureS","inputs":[{"name":"s","type":"bytes32","internalType":"bytes32"}]},{"type":"error","name":"FeeTooHigh","inputs":[{"name":"provided","type":"uint256","internalType":"uint256"},{"name":"maximum","type":"uint256","internalType":"uint256"}]},{"type":"error","name":"FeeTooLow","inputs":[{"name":"provided","type":"uint256","internalType":"uint256"},{"name":"required","type":"uint256","internalType":"uint256"}]},{"type":"error","name":"HardCapTooLow","inputs":[{"name":"hardCap","type":"uint256","internalType":"uint256"}]},{"type":"error","name":"InvalidExchangeRate","inputs":[{"name":"rate","type":"uint256","internalType":"uint256"}]},{"type":"error","name":"InvalidInitialization","inputs":[]},{"type":"error","name":"MaxFeeBelowMinFee","inputs":[{"name":"maxFee","type":"uint256","internalType":"uint256"},{"name":"minFee","type":"uint256","internalType":"uint256"}]},{"type":"error","name":"MaxFeeExceedsHardCap","inputs":[{"name":"maxFee","type":"uint256","internalType":"uint256"},{"name":"hardCap","type":"uint256","internalType":"uint256"}]},{"type":"error","name":"MinFeeExceedsMaxFee","inputs":[{"name":"minFee","type":"uint256","internalType":"uint256"},{"name":"maxFee","type":"uint256","internalType":"uint256"}]},{"type":"error","name":"NotInitializing","inputs":[]},{"type":"error","name":"OnlyDelegateFunction","inputs":[]},{"type":"error","name":"OnlyEntryPointAllowed","inputs":[]},{"type":"error","name":"OnlyOwnerFunction","inputs":[]}],"bytecode":{"object":"0x60c060405234801562000010575f80fd5b5060405162003ab838038062003ab883398101604081905262000033916200018f565b6001600160a01b038216608052816200004b620000c6565b506001600160a01b038116620000b35760405162461bcd60e51b8152602060048201526024808201527f46656520726563697069656e742063616e6e6f74206265207a65726f206164646044820152637265737360e01b606482015260840160405180910390fd5b6001600160a01b031660a05250620001cc565b7ff0c57e16840df040f15088dc2f81fe391c3923bec73e23a9662efc9c229c6a00805468010000000000000000900460ff1615620001175760405163f92ee8a960e01b815260040160405180910390fd5b80546001600160401b0390811614620001775780546001600160401b0319166001600160401b0390811782556040519081527fc7f505b2f371ae2175ee4913f4499e1f2633a7b5936321eed1cdaeb6115181d29060200160405180910390a15b50565b6001600160a01b038116811462000177575f80fd5b5f8060408385031215620001a1575f80fd5b8251620001ae816200017a565b6020840151909250620001c1816200017a565b809150509250929050565b60805160a05161386f620002495f395f818161067d015281816113e201528181611415015281816114cd01528181611d1501528181611df301528181611e260152611ede01525f818161050c01528181610fa7015281816117ad0152818161189501528181611ab901528181611fe801526120e2015261386f5ff3fe608060405260043610610205575f3560e01c806386489ba911610116578063c89e4361116100a4578063e39fbbc91161006b578063e39fbbc91461063e578063ebd090541461066c578063ef7b1f621461069f578063f0299dd8146106be578063f23a6e61146106f557005b8063c89e4361146105b8578063d05144fc146105d7578063d087d288146105f6578063d091ed471461060a578063d16f3a201461061f57005b8063b0d691fe116100e8578063b0d691fe146104fe578063b61d27f614610530578063bc197c811461054f578063bdaf04341461057a578063c4d66de81461059957005b806386489ba91461046b5780638da5cb5b1461048a578063962354ee146104c0578063ad5c29f0146104df57005b8063392e53cd116101935780634867ef4f116101655780634867ef4f146103e45780634dcdfba514610403578063550dddeb146104185780635cc3b6451461043757806383728d2b1461045657005b8063392e53cd146103625780633f1b112a146103805780634722b4a51461039557806347e1da2a146103c557005b806318dfb3c7116101d757806318dfb3c7146102c757806319822f7c146102e657806319eee913146103055780631b28ca531461032457806330eb237f1461034357005b806301ffc9a71461020e5780630c36b26f14610242578063150b7a02146102655780631626ba7e146102a857005b3661020c57005b005b348015610219575f80fd5b5061022d610228366004612ad4565b610720565b60405190151581526020015b60405180910390f35b34801561024d575f80fd5b5061025760025481565b604051908152602001610239565b348015610270575f80fd5b5061028f61027f366004612c0f565b630a85bd0160e11b949350505050565b6040516001600160e01b03199091168152602001610239565b3480156102b3575f80fd5b5061028f6102c2366004612c72565b6107a7565b3480156102d2575f80fd5b5061020c6102e1366004612cfc565b6107d4565b3480156102f1575f80fd5b50610257610300366004612d62565b6108a5565b348015610310575f80fd5b5061022d61031f366004612ded565b6108c3565b34801561032f575f80fd5b5061020c61033e366004612e2b565b6108de565b34801561034e575f80fd5b5061022d61035d366004612ded565b610bbb565b34801561036d575f80fd5b505f546001600160a01b0316151561022d565b34801561038b575f80fd5b5061025760035481565b3480156103a0575f80fd5b5060025460035460045460408051938452602084019290925290820152606001610239565b3480156103d0575f80fd5b5061020c6103df366004612e62565b610bd5565b3480156103ef575f80fd5b5061020c6103fe366004612ef4565b610c8b565b34801561040e575f80fd5b5061025760045481565b348015610423575f80fd5b5061020c610432366004612ef4565b610d25565b348015610442575f80fd5b5061020c610451366004612f23565b610de6565b348015610461575f80fd5b5061025760065481565b348015610476575f80fd5b5061020c610485366004612f58565b610e64565b348015610495575f80fd5b505f546104a8906001600160a01b031681565b6040516001600160a01b039091168152602001610239565b3480156104cb575f80fd5b5061020c6104da366004612ef4565b610f10565b3480156104ea575f80fd5b5061020c6104f9366004612fa9565b610f9c565b348015610509575f80fd5b507f00000000000000000000000000000000000000000000000000000000000000006104a8565b34801561053b575f80fd5b5061020c61054a366004613020565b61158a565b34801561055a575f80fd5b5061028f6105693660046130f7565b63bc197c8160e01b95945050505050565b348015610585575f80fd5b5061020c610594366004612ef4565b6115d8565b3480156105a4575f80fd5b5061020c6105b3366004613199565b6116e9565b3480156105c3575f80fd5b506001546104a8906001600160a01b031681565b3480156105e2575f80fd5b5061020c6105f1366004612ef4565b611842565b348015610601575f80fd5b50610257611892565b348015610615575f80fd5b5061025760055481565b34801561062a575f80fd5b5061020c610639366004612cfc565b611927565b348015610649575f80fd5b5061022d610658366004613199565b60076020525f908152604090205460ff1681565b348015610677575f80fd5b506104a87f000000000000000000000000000000000000000000000000000000000000000081565b3480156106aa575f80fd5b5061020c6106b93660046131b2565b611aae565b3480156106c9575f80fd5b5061022d6106d8366004613199565b6001600160a01b03165f9081526007602052604090205460ff1690565b348015610700575f80fd5b5061028f61070f366004613218565b63f23a6e6160e01b95945050505050565b5f6001600160e01b031982166301ffc9a760e01b148061075057506001600160e01b031982166306608bdf60e21b145b8061076b57506001600160e01b03198216630b135d3f60e11b145b8061078657506001600160e01b03198216630271189760e51b145b806107a157506001600160e01b03198216630a85bd0160e11b145b92915050565b5f6107b28383611f8d565b6107c4576001600160e01b03196107cd565b630b135d3f60e11b5b9392505050565b6107dc611fdd565b8281146108045760405162461bcd60e51b81526004016107fb90613277565b60405180910390fd5b5f5b8381101561089e57610896858583818110610823576108236132a4565b90506020020160208101906108389190613199565b5f85858581811061084b5761084b6132a4565b905060200281019061085d91906132b8565b8080601f0160208091040260200160405190810160405280939291908181526020018383808284375f9201919091525061206b92505050565b600101610806565b5050505050565b5f6108ae6120d7565b6108b8848461214f565b90506107cd826122ba565b5f806108d183850185613494565b5060a00151949350505050565b80604001358160600135116109055760405162461bcd60e51b81526004016107fb906134d5565b629896808160a00135111561092c5760405162461bcd60e51b81526004016107fb9061351b565b8060a00135816080013511156109545760405162461bcd60e51b81526004016107fb90613561565b61096160e08201826135ae565b905061097060c08301836135ae565b9050146109e55760405162461bcd60e51b815260206004820152603760248201527f44657374696e6174696f6e7320616e642073746174757365732061727261797360448201527f206d757374206861766520657175616c206c656e67746800000000000000000060648201526084016107fb565b6109f26020820182613199565b5f80546001600160a01b0319166001600160a01b0392909216919091179055610a216040820160208301613199565b600180546001600160a01b0319166001600160a01b0392909216919091179055608081013560025560a081013560035560408101356005556060810135600655629896806004555f5b610a7760c08301836135ae565b9050811015610bb757610a8d60e08301836135ae565b82818110610a9d57610a9d6132a4565b9050602002016020810190610ab291906135f3565b60075f610ac260c08601866135ae565b85818110610ad257610ad26132a4565b9050602002016020810190610ae79190613199565b6001600160a01b0316815260208101919091526040015f20805460ff1916911515919091179055610b1b60c08301836135ae565b82818110610b2b57610b2b6132a4565b9050602002016020810190610b409190613199565b6001600160a01b03167ff12936333d9bd80e8fa690cb7cab64b6a55cd75a267918d8668fb15c807aadb9610b7760e08501856135ae565b84818110610b8757610b876132a4565b9050602002016020810190610b9c91906135f3565b604051901515815260200160405180910390a2600101610a6a565b5050565b5f80610bc98385018561360e565b60a00151949350505050565b610bdd611fdd565b848114610bfc5760405162461bcd60e51b81526004016107fb90613277565b848314610c1b5760405162461bcd60e51b81526004016107fb90613277565b5f5b85811015610c8257610c7a878783818110610c3a57610c3a6132a4565b9050602002016020810190610c4f9190613199565b868684818110610c6157610c616132a4565b9050602002013585858581811061084b5761084b6132a4565b600101610c1d565b50505050505050565b6001546001600160a01b03163314610cb65760405163e70f27d560e01b815260040160405180910390fd5b600354811115610ce757600354604051637340932b60e01b81526107fb918391600401918252602082015260400190565b600281905560405181815233907f8629ef333da3b54add5d604342ba8ff48e707e2bd11a757011a025187538048b906020015b60405180910390a250565b6001546001600160a01b03163314610d505760405163e70f27d560e01b815260040160405180910390fd5b600454811115610d7e576004805460405163e131fedf60e01b815291820183905260248201526044016107fb565b600254811015610daf57600254604051636b029b6f60e11b81526107fb918391600401918252602082015260400190565b600381905560405181815233907f99e8f61f567d2cee8755540b893931e3ade09dfb0a8f9be1a90ad44fad710e8290602001610d1a565b333014610e065760405163e70f27d560e01b815260040160405180910390fd5b6001600160a01b0382165f81815260076020908152604091829020805460ff191685151590811790915591519182527ff12936333d9bd80e8fa690cb7cab64b6a55cd75a267918d8668fb15c807aadb9910160405180910390a25050565b838311610e835760405162461bcd60e51b81526004016107fb906134d5565b62989680811115610ea65760405162461bcd60e51b81526004016107fb9061351b565b80821115610ec65760405162461bcd60e51b81526004016107fb90613561565b5f80546001600160a01b039788166001600160a01b031991821617909155600180549690971695169490941790945560029390935560039190915560055560065562989680600455565b5f546001600160a01b03163314610f3a5760405163a8a483ad60e01b815260040160405180910390fd5b6006548110610f975760405162461bcd60e51b815260206004820152602360248201527f4d696e2072617465206d757374206265206c657373207468616e206d6178207260448201526261746560e81b60648201526084016107fb565b600555565b336001600160a01b037f00000000000000000000000000000000000000000000000000000000000000001614610fe55760405163e01ff8c160e01b815260040160405180910390fd5b8483146110045760405162461bcd60e51b81526004016107fb90613277565b600254821015611035576002546040516378279ed960e11b81526107fb918491600401918252602082015260400190565b600354821115611066576003546040516373ab893560e11b81526107fb918491600401918252602082015260400190565b600554811080611077575060065481115b156110985760405163d8d9aee760e01b8152600481018290526024016107fb565b60045482908111156110a957506004545b5f826110bd83670de0b6b3a764000061365b565b6110c79190613672565b90505f5b878110156111715760075f8a8a848181106110e8576110e86132a4565b90506020020160208101906110fd9190613199565b6001600160a01b0316815260208101919091526040015f205460ff166111695788888281811061112f5761112f6132a4565b90506020020160208101906111449190613199565b60405163016241a960e31b81526001600160a01b0390911660048201526024016107fb565b6001016110cb565b50804710156111c25760405162461bcd60e51b815260206004820181905260248201527f496e73756666696369656e74204554482062616c616e636520666f722066656560448201526064016107fb565b841561126f575f6111f687875f8181106111de576111de6132a4565b90506020028101906111f091906132b8565b84612303565b905088885f81811061120a5761120a6132a4565b905060200201602081019061121f9190613199565b6001600160a01b0316336001600160a01b03167fe43ea144cbbf6de550ac149ab576cfebdbfab1507ca6fd97bd2c5dcd156283a7836040516112619190613691565b60405180910390a3506113d6565b6112a96040518060e001604052805f8152602001606081526020015f81526020015f81526020015f81526020015f81526020015f81525090565b60646112b683601e61365b565b6112c09190613672565b815260646112cf83601461365b565b6112d99190613672565b6040828101919091528051600180825281830190925290816020015b604080518082019091525f80825260208201528152602001906001900390816112f557905050816020018190525060405180604001604052807f344cb0f1327234954b4cc85254786a28089870ca788cad991ea9dddaa7c23a4181526020016064846032611363919061365b565b61136d9190613672565b81525081602001515f81518110611386576113866132a4565b602090810291909101015260c081018290526040515f9033907fe43ea144cbbf6de550ac149ab576cfebdbfab1507ca6fd97bd2c5dcd156283a7906113cc908590613691565b60405180910390a3505b5f8111801561140d57507f00000000000000000000000000000000000000000000000000000000000000006001600160a01b031615155b15611530575f7f00000000000000000000000000000000000000000000000000000000000000006001600160a01b0316826040515f6040518083038185875af1925050503d805f811461147b576040519150601f19603f3d011682016040523d82523d5f602084013e611480565b606091505b50509050806114cb5760405162461bcd60e51b815260206004820152601760248201527611551208199959481d1c985b9cd9995c8819985a5b1959604a1b60448201526064016107fb565b7f00000000000000000000000000000000000000000000000000000000000000006001600160a01b03167f34e8a84e537ed93d93ddf39a78816dcbc74df8397c635838b8cc973d4fa943f88360405161152691815260200190565b60405180910390a2505b5f5b8781101561157f5761157789898381811061154f5761154f6132a4565b90506020020160208101906115649190613199565b5f89898581811061084b5761084b6132a4565b600101611532565b505050505050505050565b611592611fdd565b6115d2848484848080601f0160208091040260200160405190810160405280939291908181526020018383808284375f9201919091525061206b92505050565b50505050565b5f546001600160a01b031633146116025760405163a8a483ad60e01b815260040160405180910390fd5b5f811161165c5760405162461bcd60e51b815260206004820152602260248201527f4861726420636170206d7573742062652067726561746572207468616e207a65604482015261726f60f01b60648201526084016107fb565b60048190556003548110156116e657600381905560405181815233907f99e8f61f567d2cee8755540b893931e3ade09dfb0a8f9be1a90ad44fad710e829060200160405180910390a28060025411156116e657600281905560405181815233907f8629ef333da3b54add5d604342ba8ff48e707e2bd11a757011a025187538048b90602001610d1a565b50565b5f6116f26123ba565b805490915060ff600160401b82041615906001600160401b03165f811580156117185750825b90505f826001600160401b031660011480156117335750303b155b905081158015611741575080155b1561175f5760405163f92ee8a960e01b815260040160405180910390fd5b845467ffffffffffffffff19166001178555831561178957845460ff60401b1916600160401b1785555b5f80546001600160a01b0319166001600160a01b03888116918217835560405191927f0000000000000000000000000000000000000000000000000000000000000000909116917fba01fcbdc5087aded62607d8957ca1979b4fbeff61ac99fa09dad141e5965d7f9190a3831561183a57845460ff60401b19168555604051600181527fc7f505b2f371ae2175ee4913f4499e1f2633a7b5936321eed1cdaeb6115181d29060200160405180910390a15b505050505050565b5f546001600160a01b0316331461186c5760405163a8a483ad60e01b815260040160405180910390fd5b600554811161188d5760405162461bcd60e51b81526004016107fb906134d5565b600655565b5f7f0000000000000000000000000000000000000000000000000000000000000000604051631aab3f0d60e11b81523060048201525f60248201526001600160a01b0391909116906335567e1a90604401602060405180830381865afa1580156118fe573d5f803e3d5ffd5b505050506040513d601f19601f82011682018060405250810190611922919061372f565b905090565b6001546001600160a01b031633146119525760405163e70f27d560e01b815260040160405180910390fd5b8281146119995760405162461bcd60e51b8152602060048201526015602482015274082e4e4c2f240d8cadccee8d040dad2e6dac2e8c6d605b1b60448201526064016107fb565b5f5b8381101561089e578282828181106119b5576119b56132a4565b90506020020160208101906119ca91906135f3565b60075f8787858181106119df576119df6132a4565b90506020020160208101906119f49190613199565b6001600160a01b0316815260208101919091526040015f20805460ff1916911515919091179055848482818110611a2d57611a2d6132a4565b9050602002016020810190611a429190613199565b6001600160a01b03167ff12936333d9bd80e8fa690cb7cab64b6a55cd75a267918d8668fb15c807aadb9848484818110611a7e57611a7e6132a4565b9050602002016020810190611a9391906135f3565b604051901515815260200160405180910390a260010161199b565b336001600160a01b037f00000000000000000000000000000000000000000000000000000000000000001614611af75760405163e01ff8c160e01b815260040160405180910390fd5b600254821015611b28576002546040516378279ed960e11b81526107fb918491600401918252602082015260400190565b600354821115611b59576003546040516373ab893560e11b81526107fb918491600401918252602082015260400190565b600554811080611b6a575060065481115b15611b8b5760405163d8d9aee760e01b8152600481018290526024016107fb565b6004548290811115611b9c57506004545b5f82611bb083670de0b6b3a764000061365b565b611bba9190613672565b6001600160a01b0389165f9081526007602052604090205490915060ff16611c005760405163016241a960e31b81526001600160a01b03891660048201526024016107fb565b5f611c0c878784612303565b9050886001600160a01b0316336001600160a01b03167fe43ea144cbbf6de550ac149ab576cfebdbfab1507ca6fd97bd2c5dcd156283a783604051611c519190613691565b60405180910390a35f611c658a89896123e2565b90508015611d7b5788471015611cc85760405162461bcd60e51b815260206004820152602260248201527f496e73756666696369656e74204554482062616c616e636520666f722076616c604482015261756560f01b60648201526084016107fb565b896001600160a01b0316336001600160a01b03167fa864987eaebf6d66b036151c6b7a20e43e7cd92b9e648691c091638426e368b084604051611d0b9190613691565b60405180910390a37f00000000000000000000000000000000000000000000000000000000000000006001600160a01b03167f2bd783d5edab7e192dbb4c8b86f4e6fa9078424092f1000d9b545275cf98d50784604051611d6e91815260200190565b60405180910390a2611f41565b611d85838a613746565b471015611de75760405162461bcd60e51b815260206004820152602a60248201527f496e73756666696369656e74204554482062616c616e636520666f722076616c604482015269756520616e642066656560b01b60648201526084016107fb565b5f83118015611e1e57507f00000000000000000000000000000000000000000000000000000000000000006001600160a01b031615155b15611f41575f7f00000000000000000000000000000000000000000000000000000000000000006001600160a01b0316846040515f6040518083038185875af1925050503d805f8114611e8c576040519150601f19603f3d011682016040523d82523d5f602084013e611e91565b606091505b5050905080611edc5760405162461bcd60e51b815260206004820152601760248201527611551208199959481d1c985b9cd9995c8819985a5b1959604a1b60448201526064016107fb565b7f00000000000000000000000000000000000000000000000000000000000000006001600160a01b03167f34e8a84e537ed93d93ddf39a78816dcbc74df8397c635838b8cc973d4fa943f885604051611f3791815260200190565b60405180910390a2505b611f818a8a8a8a8080601f0160208091040260200160405190810160405280939291908181526020018383808284375f9201919091525061206b92505050565b50505050505050505050565b7f19457468657265756d205369676e6564204d6573736167653a0a3332000000005f908152601c839052603c8120611fc581846124d8565b5f546001600160a01b03918216911614949350505050565b336001600160a01b037f000000000000000000000000000000000000000000000000000000000000000016148061201d57505f546001600160a01b031633145b6120695760405162461bcd60e51b815260206004820181905260248201527f6163636f756e743a206e6f74204f776e6572206f7220456e747279506f696e7460448201526064016107fb565b565b5f80846001600160a01b031684846040516120869190613759565b5f6040518083038185875af1925050503d805f81146120c0576040519150601f19603f3d011682016040523d82523d5f602084013e6120c5565b606091505b50915091508161089e57805160208201fd5b336001600160a01b037f000000000000000000000000000000000000000000000000000000000000000016146120695760405162461bcd60e51b815260206004820152601c60248201527f6163636f756e743a206e6f742066726f6d20456e747279506f696e740000000060448201526064016107fb565b7f19457468657265756d205369676e6564204d6573736167653a0a3332000000005f908152601c829052603c81205f6121cb61218f6101008701876132b8565b8080601f0160208091040260200160405190810160405280939291908181526020018383808284375f9201919091525086939250506124d89050565b6001549091506001600160a01b03161561224c576001546001600160a01b0390811690821603612241576001546040518581526001600160a01b03909116907f2d27bd1200042fa25303e24cacd6892d9c8dacf3780736d24f22b1a9daccc6a79060200160405180910390a25f925050506107a1565b6001925050506107a1565b5f546001600160a01b03161580159061227157505f546001600160a01b038281169116145b15612280575f925050506107a1565b5f546001600160a01b03161580156122a057506001600160a01b03811630145b156122af575f925050506107a1565b506001949350505050565b80156116e6576040515f9033905f1990849084818181858888f193505050503d805f811461089e576040519150601f19603f3d011682016040523d82523d5f602084013e61089e565b61233d6040518060e001604052805f8152602001606081526020015f81526020015f81526020015f81526020015f81526020015f81525090565b606461234a83601e61365b565b6123549190613672565b8152606461236383601461365b565b61236d9190613672565b60408201526123938484606461238486603261365b565b61238e9190613672565b612500565b60208201525f606082018190526080820181905260a082015260c081018290529392505050565b5f807ff0c57e16840df040f15088dc2f81fe391c3923bec73e23a9662efc9c229c6a006107a1565b5f60048210156123f357505f6107cd565b5f6124016004828587613785565b61240a916137ac565b90506001600160e01b0319811663832d7e6960e01b036124a357306330eb237f6124378560048189613785565b6040518363ffffffff1660e01b81526004016124549291906137dc565b602060405180830381865afa92505050801561248d575060408051601f3d908101601f1916820190925261248a9181019061380a565b60015b61249a575f9150506107cd565b91506107cd9050565b6001600160e01b03198116636f84329f60e01b036124ce57306319eee9136124378560048189613785565b505f949350505050565b5f805f806124e6868661290b565b9250925092506124f68282612954565b5090949350505050565b6060600483101561259f5760408051600180825281830190925290816020015b604080518082019091525f808252602082015281526020019060019003908161252057905050905060405180604001604052807f8364c3767e797e2abe1e2eb32a8d79faef034dc82b4f0af3e5c798cb163f5f81815260200183815250815f8151811061258f5761258f6132a4565b60200260200101819052506107cd565b5f6125ad6004828688613785565b6125b6916137ac565b90506001600160e01b0319811663832d7e6960e01b036126e9576040805160028082526060820190925290816020015b604080518082019091525f80825260208201528152602001906001900390816125e657905050915060405180604001604052807fd584ea033b2617ddc60ab2be1cb201cd76bdfe3af35c63817367d117e0cd0a948152602001606485604661264e919061365b565b6126589190613672565b815250825f8151811061266d5761266d6132a4565b602002602001018190525060405180604001604052807fd5ea97cb3076fa1fb047fbe5918ed05c676ad54b0613e243f993ef1a1d591a2d8152602001606485601e6126b8919061365b565b6126c29190613672565b815250826001815181106126d8576126d86132a4565b6020026020010181905250506107cd565b6001600160e01b03198116636f84329f60e01b03612874576040805160038082526080820190925290816020015b604080518082019091525f808252602082015281526020019060019003908161271757905050915060405180604001604052807f5fa46f5b6db5d7d083de3a3d58bba0a32bd04425fadb111761739e6594fc7b108152602001606485603261277f919061365b565b6127899190613672565b815250825f8151811061279e5761279e6132a4565b602002602001018190525060405180604001604052807fd5ea97cb3076fa1fb047fbe5918ed05c676ad54b0613e243f993ef1a1d591a2d8152602001606485601e6127e9919061365b565b6127f39190613672565b81525082600181518110612809576128096132a4565b602002602001018190525060405180604001604052807f85f15e1b7cd56792dde24eb24a8d705ce45aaae89a91f00b953d03371b6bc0ab81526020016064856014612854919061365b565b61285e9190613672565b815250826002815181106126d8576126d86132a4565b60408051600180825281830190925290816020015b604080518082019091525f808252602082015281526020019060019003908161288957905050915060405180604001604052807fff5ddd34c2af1295505d2cec18fab64eff67ccc5aa0614e3e9454a405d0c434d815260200184815250825f815181106128f8576128f86132a4565b6020026020010181905250509392505050565b5f805f8351604103612942576020840151604085015160608601515f1a61293488828585612a0c565b95509550955050505061294d565b505081515f91506002905b9250925092565b5f82600381111561296757612967613825565b03612970575050565b600182600381111561298457612984613825565b036129a25760405163f645eedf60e01b815260040160405180910390fd5b60028260038111156129b6576129b6613825565b036129d75760405163fce698f760e01b8152600481018290526024016107fb565b60038260038111156129eb576129eb613825565b03610bb7576040516335e2f38360e21b8152600481018290526024016107fb565b5f80807f7fffffffffffffffffffffffffffffff5d576e7357a4501ddfe92f46681b20a0841115612a4557505f91506003905082612aca565b604080515f808252602082018084528a905260ff891692820192909252606081018790526080810186905260019060a0016020604051602081039080840390855afa158015612a96573d5f803e3d5ffd5b5050604051601f1901519150506001600160a01b038116612ac157505f925060019150829050612aca565b92505f91508190505b9450945094915050565b5f60208284031215612ae4575f80fd5b81356001600160e01b0319811681146107cd575f80fd5b80356001600160a01b0381168114612b11575f80fd5b919050565b634e487b7160e01b5f52604160045260245ffd5b604051606081016001600160401b0381118282101715612b4c57612b4c612b16565b60405290565b60405160e081016001600160401b0381118282101715612b4c57612b4c612b16565b604051601f8201601f191681016001600160401b0381118282101715612b9c57612b9c612b16565b604052919050565b5f82601f830112612bb3575f80fd5b81356001600160401b03811115612bcc57612bcc612b16565b612bdf601f8201601f1916602001612b74565b818152846020838601011115612bf3575f80fd5b816020850160208301375f918101602001919091529392505050565b5f805f8060808587031215612c22575f80fd5b612c2b85612afb565b9350612c3960208601612afb565b92506040850135915060608501356001600160401b03811115612c5a575f80fd5b612c6687828801612ba4565b91505092959194509250565b5f8060408385031215612c83575f80fd5b8235915060208301356001600160401b03811115612c9f575f80fd5b612cab85828601612ba4565b9150509250929050565b5f8083601f840112612cc5575f80fd5b5081356001600160401b03811115612cdb575f80fd5b6020830191508360208260051b8501011115612cf5575f80fd5b9250929050565b5f805f8060408587031215612d0f575f80fd5b84356001600160401b0380821115612d25575f80fd5b612d3188838901612cb5565b90965094506020870135915080821115612d49575f80fd5b50612d5687828801612cb5565b95989497509550505050565b5f805f60608486031215612d74575f80fd5b83356001600160401b03811115612d89575f80fd5b84016101208187031215612d9b575f80fd5b95602085013595506040909401359392505050565b5f8083601f840112612dc0575f80fd5b5081356001600160401b03811115612dd6575f80fd5b602083019150836020828501011115612cf5575f80fd5b5f8060208385031215612dfe575f80fd5b82356001600160401b03811115612e13575f80fd5b612e1f85828601612db0565b90969095509350505050565b5f60208284031215612e3b575f80fd5b81356001600160401b03811115612e50575f80fd5b820161010081850312156107cd575f80fd5b5f805f805f8060608789031215612e77575f80fd5b86356001600160401b0380821115612e8d575f80fd5b612e998a838b01612cb5565b90985096506020890135915080821115612eb1575f80fd5b612ebd8a838b01612cb5565b90965094506040890135915080821115612ed5575f80fd5b50612ee289828a01612cb5565b979a9699509497509295939492505050565b5f60208284031215612f04575f80fd5b5035919050565b80151581146116e6575f80fd5b8035612b1181612f0b565b5f8060408385031215612f34575f80fd5b612f3d83612afb565b91506020830135612f4d81612f0b565b809150509250929050565b5f805f805f8060c08789031215612f6d575f80fd5b612f7687612afb565b9550612f8460208801612afb565b95989597505050506040840135936060810135936080820135935060a0909101359150565b5f805f805f8060808789031215612fbe575f80fd5b86356001600160401b0380821115612fd4575f80fd5b612fe08a838b01612cb5565b90985096506020890135915080821115612ff8575f80fd5b5061300589828a01612cb5565b979a9699509760408101359660609091013595509350505050565b5f805f8060608587031215613033575f80fd5b61303c85612afb565b93506020850135925060408501356001600160401b0381111561305d575f80fd5b612d5687828801612db0565b5f6001600160401b0382111561308157613081612b16565b5060051b60200190565b5f82601f83011261309a575f80fd5b813560206130af6130aa83613069565b612b74565b8083825260208201915060208460051b8701019350868411156130d0575f80fd5b602086015b848110156130ec57803583529183019183016130d5565b509695505050505050565b5f805f805f60a0868803121561310b575f80fd5b61311486612afb565b945061312260208701612afb565b935060408601356001600160401b038082111561313d575f80fd5b61314989838a0161308b565b9450606088013591508082111561315e575f80fd5b61316a89838a0161308b565b9350608088013591508082111561317f575f80fd5b5061318c88828901612ba4565b9150509295509295909350565b5f602082840312156131a9575f80fd5b6107cd82612afb565b5f805f805f8060a087890312156131c7575f80fd5b6131d087612afb565b95506020870135945060408701356001600160401b038111156131f1575f80fd5b6131fd89828a01612db0565b979a9699509760608101359660809091013595509350505050565b5f805f805f60a0868803121561322c575f80fd5b61323586612afb565b945061324360208701612afb565b9350604086013592506060860135915060808601356001600160401b0381111561326b575f80fd5b61318c88828901612ba4565b60208082526013908201527277726f6e67206172726179206c656e6774687360681b604082015260600190565b634e487b7160e01b5f52603260045260245ffd5b5f808335601e198436030181126132cd575f80fd5b8301803591506001600160401b038211156132e6575f80fd5b602001915036819003821315612cf5575f80fd5b5f82601f830112613309575f80fd5b813560206133196130aa83613069565b82815260059290921b84018101918181019086841115613337575f80fd5b8286015b848110156130ec5780356001600160401b0380821115613359575f80fd5b908801906060828b03601f1901811315613371575f80fd5b613379612b2a565b87840135815260408085013584811115613391575f80fd5b61339f8e8b83890101612ba4565b838b0152509184013591838311156133b5575f80fd5b6133c38d8a85880101612ba4565b90820152865250505091830191830161333b565b5f60e082840312156133e7575f80fd5b6133ef612b52565b905081358152602082013560208201526040820135604082015260608201356001600160401b0380821115613422575f80fd5b61342e858386016132fa565b60608401526080840135915080821115613446575f80fd5b61345285838601612ba4565b608084015261346360a08501612f18565b60a084015260c084013591508082111561347b575f80fd5b5061348884828501612ba4565b60c08301525092915050565b5f80604083850312156134a5575f80fd5b82356001600160401b038111156134ba575f80fd5b6134c6858286016133d7565b95602094909401359450505050565b60208082526026908201527f4d61782072617465206d7573742062652067726561746572207468616e206d696040820152656e207261746560d01b606082015260800190565b60208082526026908201527f4d6178206665652063616e6e6f7420657863656564203130205553444320686160408201526507264206361760d41b606082015260800190565b6020808252602d908201527f4d696e20666565206d757374206265206c657373207468616e206f722065717560408201526c616c20746f206d61782066656560981b606082015260800190565b5f808335601e198436030181126135c3575f80fd5b8301803591506001600160401b038211156135dc575f80fd5b6020019150600581901b3603821315612cf5575f80fd5b5f60208284031215613603575f80fd5b81356107cd81612f0b565b5f6020828403121561361e575f80fd5b81356001600160401b03811115613633575f80fd5b61363f848285016133d7565b949350505050565b634e487b7160e01b5f52601160045260245ffd5b80820281158282048414176107a1576107a1613647565b5f8261368c57634e487b7160e01b5f52601260045260245ffd5b500490565b5f6020808352610100830184518285015281850151604060e060408701528282518085526101208801915085840194505f93505b808410156136ee57845180518352860151868301529385019360019390930192908201906136c5565b506040880151606088015260608801516080880152608088015160a088015260a088015160c088015260c088015160e0880152809550505050505092915050565b5f6020828403121561373f575f80fd5b5051919050565b808201808211156107a1576107a1613647565b5f82515f5b81811015613778576020818601810151858301520161375e565b505f920191825250919050565b5f8085851115613793575f80fd5b8386111561379f575f80fd5b5050820193919092039150565b6001600160e01b031981358181169160048510156137d45780818660040360031b1b83161692505b505092915050565b60208152816020820152818360408301375f818301604090810191909152601f909201601f19160101919050565b5f6020828403121561381a575f80fd5b81516107cd81612f0b565b634e487b7160e01b5f52602160045260245ffdfea2646970667358221220d4c44e5af1688375e337021a9d5b7014e5264217644e5b7b209463697a5abd0c64736f6c63430008170033","linkReferences":{}},"methodIdentifiers":{"FEE_RECIPIENT()":"ebd09054","_decodePurchaseTokens(bytes)":"19eee913","_decodeSubmitPropertyAnalysis(bytes)":"30eb237f","batchUpdateDestinationWhitelist(address[],bool[])":"d16f3a20","delegate()":"c89e4361","entryPoint()":"b0d691fe","execute(address,uint256,bytes)":"b61d27f6","execute(address,uint256,bytes,uint256,uint256)":"ef7b1f62","executeBatch(address[],bytes[])":"18dfb3c7","executeBatch(address[],bytes[],uint256,uint256)":"ad5c29f0","executeBatch(address[],uint256[],bytes[])":"47e1da2a","getFeeParameters()":"4722b4a5","getNonce()":"d087d288","hardFeeCap()":"4dcdfba5","initialize(address)":"c4d66de8","initialize(address,address,uint256,uint256,uint256,uint256)":"86489ba9","initializeWithConfig((address,address,uint256,uint256,uint256,uint256,address[],bool[]))":"1b28ca53","isDestinationWhitelisted(address)":"f0299dd8","isInitialized()":"392e53cd","isValidSignature(bytes32,bytes)":"1626ba7e","isWhitelistedDestination(address)":"e39fbbc9","maxExchangeRate()":"83728d2b","maxFeePerTransaction()":"3f1b112a","minExchangeRate()":"d091ed47","minRequiredFee()":"0c36b26f","onERC1155BatchReceived(address,address,uint256[],uint256[],bytes)":"bc197c81","onERC1155Received(address,address,uint256,uint256,bytes)":"f23a6e61","onERC721Received(address,address,uint256,bytes)":"150b7a02","owner()":"8da5cb5b","supportsInterface(bytes4)":"01ffc9a7","updateDestinationWhitelist(address,bool)":"5cc3b645","updateHardFeeCap(uint256)":"bdaf0434","updateMaxExchangeRate(uint256)":"d05144fc","updateMaxFee(uint256)":"550dddeb","updateMinExchangeRate(uint256)":"962354ee","updateMinFee(uint256)":"4867ef4f","validateUserOp((address,uint256,bytes,bytes,bytes32,uint256,bytes32,bytes,bytes),bytes32,uint256)":"19822f7c"},"id":47}