{"abi":[{"type":"constructor","inputs":[{"name":"_authKey","type":"address","internalType":"address"},{"name":"_recoveryKey","type":"address","internalType":"address"},{"name":"_owner","type":"address","internalType":"address"},{"name":"_delegatedAccountImpl","type":"address","internalType":"address"},{"name":"_usdcToken","type":"address","internalType":"address"},{"name":"_propertyAddress","type":"string","internalType":"string"}],"stateMutability":"nonpayable"},{"type":"function","name":"MAX_SINGLE_PURCHASE_PCT","inputs":[],"outputs":[{"name":"","type":"uint256","internalType":"uint256"}],"stateMutability":"view"},{"type":"function","name":"MIN_CONFIDENCE","inputs":[],"outputs":[{"name":"","type":"uint256","internalType":"uint256"}],"stateMutability":"view"},{"type":"function","name":"MIN_INVESTMENT","inputs":[],"outputs":[{"name":"","type":"uint256","internalType":"uint256"}],"stateMutability":"view"},{"type":"function","name":"allInvestments","inputs":[{"name":"","type":"uint256","internalType":"uint256"}],"outputs":[{"name":"investor","type":"address","internalType":"address"},{"name":"tokenAmount","type":"uint256","internalType":"uint256"},{"name":"usdcAmount","type":"uint256","internalType":"uint256"},{"name":"timestamp","type":"uint256","internalType":"uint256"},{"name":"ownershipPercentage","type":"uint256","internalType":"uint256"}],"stateMutability":"view"},{"type":"function","name":"allowance","inputs":[{"name":"owner","type":"address","internalType":"address"},{"name":"spender","type":"address","internalType":"address"}],"outputs":[{"name":"","type":"uint256","internalType":"uint256"}],"stateMutability":"view"},{"type":"function","name":"approve","inputs":[{"name":"spender","type":"address","internalType":"address"},{"name":"value","type":"uint256","internalType":"uint256"}],"outputs":[{"name":"","type":"bool","internalType":"bool"}],"stateMutability":"nonpayable"},{"type":"function","name":"balanceOf","inputs":[{"name":"account","type":"address","internalType":"address"}],"outputs":[{"name":"","type":"uint256","internalType":"uint256"}],"stateMutability":"view"},{"type":"function","name":"calculateExpectedReturn","inputs":[{"name":"investmentAmount","type":"uint256","internalType":"uint256"}],"outputs":[{"name":"","type":"uint256","internalType":"uint256"}],"stateMutability":"view"},{"type":"function","name":"decimals","inputs":[],"outputs":[{"name":"","type":"uint8","internalType":"uint8"}],"stateMutability":"pure"},{"type":"function","name":"delegatedAccountCodeHash","inputs":[],"outputs":[{"name":"","type":"bytes32","internalType":"bytes32"}],"stateMutability":"view"},{"type":"function","name":"emergencyResetNonce","inputs":[{"name":"user","type":"address","internalType":"address"},{"name":"newNonce","type":"uint256","internalType":"uint256"}],"outputs":[],"stateMutability":"nonpayable"},{"type":"function","name":"getAuthorizationHash","inputs":[{"name":"user","type":"address","internalType":"address"},{"name":"authData","type":"tuple","internalType":"struct TargetBase.AuthData","components":[{"name":"nonce","type":"uint256","internalType":"uint256"},{"name":"expiry","type":"uint256","internalType":"uint256"},{"name":"id","type":"bytes32","internalType":"bytes32"},{"name":"executions","type":"tuple[]","internalType":"struct TargetBase.Execution[]","components":[{"name":"id","type":"bytes32","internalType":"bytes32"},{"name":"request","type":"bytes","internalType":"bytes"},{"name":"response","type":"bytes","internalType":"bytes"}]},{"name":"result","type":"bytes","internalType":"bytes"},{"name":"sponsorExecutionFee","type":"bool","internalType":"bool"},{"name":"signature","type":"bytes","internalType":"bytes"}]},{"name":"selector","type":"bytes4","internalType":"bytes4"}],"outputs":[{"name":"","type":"bytes32","internalType":"bytes32"}],"stateMutability":"pure"},{"type":"function","name":"getAvailableTokens","inputs":[],"outputs":[{"name":"","type":"uint256","internalType":"uint256"}],"stateMutability":"view"},{"type":"function","name":"getCodeHash","inputs":[{"name":"account","type":"address","internalType":"address"}],"outputs":[{"name":"","type":"bytes32","internalType":"bytes32"}],"stateMutability":"view"},{"type":"function","name":"getInvestmentSummary","inputs":[{"name":"investor","type":"address","internalType":"address"}],"outputs":[{"name":"tokensOwned","type":"uint256","internalType":"uint256"},{"name":"investmentValue","type":"uint256","internalType":"uint256"},{"name":"ownershipPercentage","type":"uint256","internalType":"uint256"},{"name":"expectedAnnualReturn","type":"uint256","internalType":"uint256"}],"stateMutability":"view"},{"type":"function","name":"getInvestorRecord","inputs":[{"name":"investor","type":"address","internalType":"address"},{"name":"index","type":"uint256","internalType":"uint256"}],"outputs":[{"name":"","type":"tuple","internalType":"struct RealEstateInvestment.InvestmentRecord","components":[{"name":"investor","type":"address","internalType":"address"},{"name":"tokenAmount","type":"uint256","internalType":"uint256"},{"name":"usdcAmount","type":"uint256","internalType":"uint256"},{"name":"timestamp","type":"uint256","internalType":"uint256"},{"name":"ownershipPercentage","type":"uint256","internalType":"uint256"}]}],"stateMutability":"view"},{"type":"function","name":"getInvestorRecordCount","inputs":[{"name":"investor","type":"address","internalType":"address"}],"outputs":[{"name":"","type":"uint256","internalType":"uint256"}],"stateMutability":"view"},{"type":"function","name":"getNonce","inputs":[{"name":"user","type":"address","internalType":"address"}],"outputs":[{"name":"","type":"uint256","internalType":"uint256"}],"stateMutability":"view"},{"type":"function","name":"getOwnershipPercentage","inputs":[{"name":"investor","type":"address","internalType":"address"}],"outputs":[{"name":"","type":"uint256","internalType":"uint256"}],"stateMutability":"view"},{"type":"function","name":"getPropertyInfo","inputs":[],"outputs":[{"name":"","type":"tuple","internalType":"struct RealEstateInvestment.PropertyInfo","components":[{"name":"propertyAddress","type":"string","internalType":"string"},{"name":"totalValue","type":"uint256","internalType":"uint256"},{"name":"investmentGrade","type":"string","internalType":"string"},{"name":"expectedYield","type":"uint256","internalType":"uint256"},{"name":"confidence","type":"uint256","internalType":"uint256"},{"name":"totalTokenSupply","type":"uint256","internalType":"uint256"},{"name":"pricePerToken","type":"uint256","internalType":"uint256"},{"name":"isActive","type":"bool","internalType":"bool"},{"name":"createdAt","type":"uint256","internalType":"uint256"},{"name":"analysisTimestamp","type":"uint256","internalType":"uint256"}]}],"stateMutability":"view"},{"type":"function","name":"getTotalInvestmentCount","inputs":[],"outputs":[{"name":"","type":"uint256","internalType":"uint256"}],"stateMutability":"view"},{"type":"function","name":"hasInvested","inputs":[{"name":"","type":"address","internalType":"address"}],"outputs":[{"name":"","type":"bool","internalType":"bool"}],"stateMutability":"view"},{"type":"function","name":"investorRecords","inputs":[{"name":"","type":"address","internalType":"address"},{"name":"","type":"uint256","internalType":"uint256"}],"outputs":[{"name":"investor","type":"address","internalType":"address"},{"name":"tokenAmount","type":"uint256","internalType":"uint256"},{"name":"usdcAmount","type":"uint256","internalType":"uint256"},{"name":"timestamp","type":"uint256","internalType":"uint256"},{"name":"ownershipPercentage","type":"uint256","internalType":"uint256"}],"stateMutability":"view"},{"type":"function","name":"isAuthorizationUsed","inputs":[{"name":"authHash","type":"bytes32","internalType":"bytes32"}],"outputs":[{"name":"","type":"bool","internalType":"bool"}],"stateMutability":"view"},{"type":"function","name":"isDelegatedAccount","inputs":[{"name":"account","type":"address","internalType":"address"}],"outputs":[{"name":"","type":"bool","internalType":"bool"}],"stateMutability":"view"},{"type":"function","name":"isDelegatedAccountSet","inputs":[],"outputs":[{"name":"","type":"bool","internalType":"bool"}],"stateMutability":"view"},{"type":"function","name":"isInvestmentAvailable","inputs":[],"outputs":[{"name":"","type":"bool","internalType":"bool"}],"stateMutability":"view"},{"type":"function","name":"masterKey","inputs":[],"outputs":[{"name":"","type":"address","internalType":"address"}],"stateMutability":"view"},{"type":"function","name":"name","inputs":[],"outputs":[{"name":"","type":"string","internalType":"string"}],"stateMutability":"view"},{"type":"function","name":"nonces","inputs":[{"name":"","type":"address","internalType":"address"}],"outputs":[{"name":"","type":"uint256","internalType":"uint256"}],"stateMutability":"view"},{"type":"function","name":"owner","inputs":[],"outputs":[{"name":"","type":"address","internalType":"address"}],"stateMutability":"view"},{"type":"function","name":"pauseInvestments","inputs":[],"outputs":[],"stateMutability":"nonpayable"},{"type":"function","name":"property","inputs":[],"outputs":[{"name":"propertyAddress","type":"string","internalType":"string"},{"name":"totalValue","type":"uint256","internalType":"uint256"},{"name":"investmentGrade","type":"string","internalType":"string"},{"name":"expectedYield","type":"uint256","internalType":"uint256"},{"name":"confidence","type":"uint256","internalType":"uint256"},{"name":"totalTokenSupply","type":"uint256","internalType":"uint256"},{"name":"pricePerToken","type":"uint256","internalType":"uint256"},{"name":"isActive","type":"bool","internalType":"bool"},{"name":"createdAt","type":"uint256","internalType":"uint256"},{"name":"analysisTimestamp","type":"uint256","internalType":"uint256"}],"stateMutability":"view"},{"type":"function","name":"purchaseTokens","inputs":[{"name":"authData","type":"tuple","internalType":"struct TargetBase.AuthData","components":[{"name":"nonce","type":"uint256","internalType":"uint256"},{"name":"expiry","type":"uint256","internalType":"uint256"},{"name":"id","type":"bytes32","internalType":"bytes32"},{"name":"executions","type":"tuple[]","internalType":"struct TargetBase.Execution[]","components":[{"name":"id","type":"bytes32","internalType":"bytes32"},{"name":"request","type":"bytes","internalType":"bytes"},{"name":"response","type":"bytes","internalType":"bytes"}]},{"name":"result","type":"bytes","internalType":"bytes"},{"name":"sponsorExecutionFee","type":"bool","internalType":"bool"},{"name":"signature","type":"bytes","internalType":"bytes"}]},{"name":"usdcAmount","type":"uint256","internalType":"uint256"}],"outputs":[],"stateMutability":"nonpayable"},{"type":"function","name":"recoveryKey","inputs":[],"outputs":[{"name":"","type":"address","internalType":"address"}],"stateMutability":"view"},{"type":"function","name":"renounceOwnership","inputs":[],"outputs":[],"stateMutability":"nonpayable"},{"type":"function","name":"resumeInvestments","inputs":[],"outputs":[],"stateMutability":"nonpayable"},{"type":"function","name":"setDelegatedAccountImplementation","inputs":[{"name":"implementation","type":"address","internalType":"address"}],"outputs":[],"stateMutability":"nonpayable"},{"type":"function","name":"submitPropertyAnalysis","inputs":[{"name":"authData","type":"tuple","internalType":"struct TargetBase.AuthData","components":[{"name":"nonce","type":"uint256","internalType":"uint256"},{"name":"expiry","type":"uint256","internalType":"uint256"},{"name":"id","type":"bytes32","internalType":"bytes32"},{"name":"executions","type":"tuple[]","internalType":"struct TargetBase.Execution[]","components":[{"name":"id","type":"bytes32","internalType":"bytes32"},{"name":"request","type":"bytes","internalType":"bytes"},{"name":"response","type":"bytes","internalType":"bytes"}]},{"name":"result","type":"bytes","internalType":"bytes"},{"name":"sponsorExecutionFee","type":"bool","internalType":"bool"},{"name":"signature","type":"bytes","internalType":"bytes"}]}],"outputs":[],"stateMutability":"nonpayable"},{"type":"function","name":"symbol","inputs":[],"outputs":[{"name":"","type":"string","internalType":"string"}],"stateMutability":"view"},{"type":"function","name":"totalInvestors","inputs":[],"outputs":[{"name":"","type":"uint256","internalType":"uint256"}],"stateMutability":"view"},{"type":"function","name":"totalSupply","inputs":[],"outputs":[{"name":"","type":"uint256","internalType":"uint256"}],"stateMutability":"view"},{"type":"function","name":"transfer","inputs":[{"name":"to","type":"address","internalType":"address"},{"name":"value","type":"uint256","internalType":"uint256"}],"outputs":[{"name":"","type":"bool","internalType":"bool"}],"stateMutability":"nonpayable"},{"type":"function","name":"transferFrom","inputs":[{"name":"from","type":"address","internalType":"address"},{"name":"to","type":"address","internalType":"address"},{"name":"value","type":"uint256","internalType":"uint256"}],"outputs":[{"name":"","type":"bool","internalType":"bool"}],"stateMutability":"nonpayable"},{"type":"function","name":"transferOwnership","inputs":[{"name":"newOwner","type":"address","internalType":"address"}],"outputs":[],"stateMutability":"nonpayable"},{"type":"function","name":"updateMasterKey","inputs":[{"name":"newMasterKey","type":"address","internalType":"address"}],"outputs":[],"stateMutability":"nonpayable"},{"type":"function","name":"updateRecoveryKey","inputs":[{"name":"newRecoveryKey","type":"address","internalType":"address"}],"outputs":[],"stateMutability":"nonpayable"},{"type":"function","name":"usdc","inputs":[],"outputs":[{"name":"","type":"address","internalType":"contract IERC20"}],"stateMutability":"view"},{"type":"function","name":"usedAuthorizations","inputs":[{"name":"","type":"bytes32","internalType":"bytes32"}],"outputs":[{"name":"","type":"bool","internalType":"bool"}],"stateMutability":"view"},{"type":"function","name":"withdrawUSDC","inputs":[{"name":"amount","type":"uint256","internalType":"uint256"}],"outputs":[],"stateMutability":"nonpayable"},{"type":"event","name":"Approval","inputs":[{"name":"owner","type":"address","indexed":true,"internalType":"address"},{"name":"spender","type":"address","indexed":true,"internalType":"address"},{"name":"value","type":"uint256","indexed":false,"internalType":"uint256"}],"anonymous":false},{"type":"event","name":"AuthorizationVerified","inputs":[{"name":"authorizer","type":"address","indexed":true,"internalType":"address"},{"name":"sender","type":"address","indexed":true,"internalType":"address"},{"name":"nonce","type":"uint256","indexed":false,"internalType":"uint256"},{"name":"dataHash","type":"bytes32","indexed":false,"internalType":"bytes32"}],"anonymous":false},{"type":"event","name":"DelegatedAccountSet","inputs":[{"name":"implementation","type":"address","indexed":true,"internalType":"address"},{"name":"codeHash","type":"bytes32","indexed":true,"internalType":"bytes32"}],"anonymous":false},{"type":"event","name":"InvestmentOpened","inputs":[{"name":"caller","type":"address","indexed":true,"internalType":"address"},{"name":"nonce","type":"uint256","indexed":true,"internalType":"uint256"},{"name":"id","type":"bytes32","indexed":true,"internalType":"bytes32"},{"name":"propertyAddress","type":"string","indexed":false,"internalType":"string"},{"name":"totalValue","type":"uint256","indexed":false,"internalType":"uint256"},{"name":"totalTokenSupply","type":"uint256","indexed":false,"internalType":"uint256"},{"name":"pricePerToken","type":"uint256","indexed":false,"internalType":"uint256"}],"anonymous":false},{"type":"event","name":"MasterKeyUpdated","inputs":[{"name":"oldKey","type":"address","indexed":true,"internalType":"address"},{"name":"newKey","type":"address","indexed":true,"internalType":"address"},{"name":"updatedBy","type":"address","indexed":true,"internalType":"address"}],"anonymous":false},{"type":"event","name":"OwnershipTransferred","inputs":[{"name":"previousOwner","type":"address","indexed":true,"internalType":"address"},{"name":"newOwner","type":"address","indexed":true,"internalType":"address"}],"anonymous":false},{"type":"event","name":"PropertyAnalyzed","inputs":[{"name":"caller","type":"address","indexed":true,"internalType":"address"},{"name":"nonce","type":"uint256","indexed":true,"internalType":"uint256"},{"name":"id","type":"bytes32","indexed":true,"internalType":"bytes32"},{"name":"propertyAddress","type":"string","indexed":false,"internalType":"string"},{"name":"totalValue","type":"uint256","indexed":false,"internalType":"uint256"},{"name":"investmentGrade","type":"string","indexed":false,"internalType":"string"},{"name":"expectedYield","type":"uint256","indexed":false,"internalType":"uint256"},{"name":"confidence","type":"uint256","indexed":false,"internalType":"uint256"},{"name":"recommendation","type":"string","indexed":false,"internalType":"string"}],"anonymous":false},{"type":"event","name":"RecoveryKeyUpdated","inputs":[{"name":"oldKey","type":"address","indexed":true,"internalType":"address"},{"name":"newKey","type":"address","indexed":true,"internalType":"address"}],"anonymous":false},{"type":"event","name":"TokensPurchased","inputs":[{"name":"caller","type":"address","indexed":true,"internalType":"address"},{"name":"nonce","type":"uint256","indexed":true,"internalType":"uint256"},{"name":"id","type":"bytes32","indexed":true,"internalType":"bytes32"},{"name":"investor","type":"address","indexed":false,"internalType":"address"},{"name":"tokenAmount","type":"uint256","indexed":false,"internalType":"uint256"},{"name":"usdcAmount","type":"uint256","indexed":false,"internalType":"uint256"},{"name":"ownershipPercentage","type":"uint256","indexed":false,"internalType":"uint256"},{"name":"timestamp","type":"uint256","indexed":false,"internalType":"uint256"}],"anonymous":false},{"type":"event","name":"Transfer","inputs":[{"name":"from","type":"address","indexed":true,"internalType":"address"},{"name":"to","type":"address","indexed":true,"internalType":"address"},{"name":"value","type":"uint256","indexed":false,"internalType":"uint256"}],"anonymous":false},{"type":"error","name":"AuthorizationAlreadyUsed","inputs":[]},{"type":"error","name":"AuthorizationExpired","inputs":[]},{"type":"error","name":"ConfidenceTooLow","inputs":[]},{"type":"error","name":"DelegatedAccountNotSet","inputs":[]},{"type":"error","name":"ECDSAInvalidSignature","inputs":[]},{"type":"error","name":"ECDSAInvalidSignatureLength","inputs":[{"name":"length","type":"uint256","internalType":"uint256"}]},{"type":"error","name":"ECDSAInvalidSignatureS","inputs":[{"name":"s","type":"bytes32","internalType":"bytes32"}]},{"type":"error","name":"ERC20InsufficientAllowance","inputs":[{"name":"spender","type":"address","internalType":"address"},{"name":"allowance","type":"uint256","internalType":"uint256"},{"name":"needed","type":"uint256","internalType":"uint256"}]},{"type":"error","name":"ERC20InsufficientBalance","inputs":[{"name":"sender","type":"address","internalType":"address"},{"name":"balance","type":"uint256","internalType":"uint256"},{"name":"needed","type":"uint256","internalType":"uint256"}]},{"type":"error","name":"ERC20InvalidApprover","inputs":[{"name":"approver","type":"address","internalType":"address"}]},{"type":"error","name":"ERC20InvalidReceiver","inputs":[{"name":"receiver","type":"address","internalType":"address"}]},{"type":"error","name":"ERC20InvalidSender","inputs":[{"name":"sender","type":"address","internalType":"address"}]},{"type":"error","name":"ERC20InvalidSpender","inputs":[{"name":"spender","type":"address","internalType":"address"}]},{"type":"error","name":"ExceedsAvailableTokens","inputs":[]},{"type":"error","name":"ExceedsMaxSinglePurchase","inputs":[]},{"type":"error","name":"InsufficientInvestmentAmount","inputs":[]},{"type":"error","name":"InvalidAddress","inputs":[]},{"type":"error","name":"InvalidAnalysisData","inputs":[]},{"type":"error","name":"InvalidImplementation","inputs":[]},{"type":"error","name":"InvalidNonce","inputs":[]},{"type":"error","name":"InvalidRecommendation","inputs":[]},{"type":"error","name":"InvalidSignature","inputs":[]},{"type":"error","name":"NoCode","inputs":[]},{"type":"error","name":"OwnableInvalidOwner","inputs":[{"name":"owner","type":"address","internalType":"address"}]},{"type":"error","name":"OwnableUnauthorizedAccount","inputs":[{"name":"account","type":"address","internalType":"address"}]},{"type":"error","name":"PropertyAlreadyAnalyzed","inputs":[]},{"type":"error","name":"PropertyNotActive","inputs":[]},{"type":"error","name":"PropertyNotAnalyzed","inputs":[]},{"type":"error","name":"ReentrancyGuardReentrantCall","inputs":[]},{"type":"error","name":"USDCTransferFailed","inputs":[]},{"type":"error","name":"UnauthorizedCaller","inputs":[]}],"bytecode":{"object":"0x60a060405234801562000010575f80fd5b506040516200321938038062003219833981016040819052620000339162000347565b604080518082018252601a81527f5265616c204573746174652050726f706572747920546f6b656e000000000000602080830191909152825180840190935260048352631491541560e21b9083015260015f559087878787816001600160a01b038116620000ba57604051631e4fbdf760e01b81525f600482015260240160405180910390fd5b620000c581620001fb565b506001600160a01b038416620000ee5760405163e6c4247b60e01b815260040160405180910390fd5b6001600160a01b038316620001165760405163e6c4247b60e01b815260040160405180910390fd5b6001600160a01b0381166200013e5760405163e6c4247b60e01b815260040160405180910390fd5b600280546001600160a01b038087166001600160a01b031992831617909255600380549286169290911691909117905562000179816200024c565b5050505081600a90816200018e9190620004f9565b50600b6200019d8282620004f9565b5050506001600160a01b038216620001c85760405163e6c4247b60e01b815260040160405180910390fd5b6001600160a01b038216608052600c620001e38282620004f9565b50506013805460ff1916905550620005c59350505050565b600180546001600160a01b038381166001600160a01b0319831681179093556040519116919082907f8be0079c531659141344cd1fd0a4f28419497f9722a3daafe3b4186f6b6457e0905f90a35050565b803f8015806200027b57507fc5d2460186f7233c927e7db2dcc703c0e500b653ca82273b7bfad8045d85a47081145b156200029a57604051633c11a9c560e21b815260040160405180910390fd5b60405161ef0160f01b60208201526001600160601b0319606084901b1660238201525f9060370160408051601f1981840301815290829052805160208201206006819055909250906001600160a01b038516907f5b1390f119226218b27296b195e4447b856827c4d713c7cb924a278080112e7c905f90a3505050565b80516001600160a01b03811681146200032e575f80fd5b919050565b634e487b7160e01b5f52604160045260245ffd5b5f805f805f8060c087890312156200035d575f80fd5b620003688762000317565b955060206200037981890162000317565b9550620003896040890162000317565b9450620003996060890162000317565b9350620003a96080890162000317565b60a08901519093506001600160401b0380821115620003c6575f80fd5b818a0191508a601f830112620003da575f80fd5b815181811115620003ef57620003ef62000333565b604051601f8201601f19908116603f011681019083821181831017156200041a576200041a62000333565b816040528281528d8684870101111562000432575f80fd5b5f93505b8284101562000455578484018601518185018701529285019262000436565b5f8684830101528096505050505050509295509295509295565b600181811c908216806200048457607f821691505b602082108103620004a357634e487b7160e01b5f52602260045260245ffd5b50919050565b601f821115620004f457805f5260205f20601f840160051c81016020851015620004d05750805b601f840160051c820191505b81811015620004f1575f8155600101620004dc565b50505b505050565b81516001600160401b0381111562000515576200051562000333565b6200052d816200052684546200046f565b84620004a9565b602080601f83116001811462000563575f84156200054b5750858301515b5f19600386901b1c1916600185901b178555620005bd565b5f85815260208120601f198616915b82811015620005935788860151825594840194600190910190840162000572565b5085821015620005b157878501515f19600388901b60f8161c191681555b505060018460011b0185555b505050505050565b608051612c2d620005ec5f395f818161043801528181610ea501526117220152612c2d5ff3fe608060405234801561000f575f80fd5b50600436106102cb575f3560e01c8063780440421161017b578063ac1d92a1116100e4578063db81f99b1161009e578063ea3ad4a311610079578063ea3ad4a314610737578063edb9a5c01461073f578063f2fde38b14610761578063f916948a14610774575f80fd5b8063db81f99b146106e4578063dd62ed3e146106f7578063e35568cb1461072f575f80fd5b8063ac1d92a114610663578063b80a852c14610676578063c7ee8b4314610689578063c99c35d81461069c578063d5a1780b146106af578063daafc3a2146106d1575f80fd5b8063912c676911610135578063912c67691461060757806395d89b411461060f57806397905a8814610617578063a2931fe81461062a578063a9059cbb1461063d578063ab17e33714610650575f80fd5b806378044042146105465780637ecebe001461059f57806381ea4408146105be578063832d7e69146105d05780638afe35b9146105e35780638da5cb5b146105f6575f80fd5b80633545b6dc1161023757806356914d5b116101f15780636f84329f116101cc5780636f84329f146104f057806370a0823114610503578063715018a61461052b57806376ca3f6114610533575f80fd5b806356914d5b1461048e5780635de5f3be14610496578063650e71e3146104ab575f80fd5b80633545b6dc146104015780633dacd33c146104295780633e413bee14610433578063401105351461047257806341f937571461047b5780634ef8ff3314610483575f80fd5b806323b872dd1161028857806323b872dd1461039157806329b8caff146103a45780632d0335ab146103ad5780632eb40090146103d55780632fcb61ff146103ea578063313ce567146103f2575f80fd5b80630434c8c2146102cf57806306fdde0314610307578063095ea7b31461031c57806314335b8d1461033f578063176fd3f01461036157806318160ddd1461037f575b5f80fd5b6102e26102dd366004612220565b61077d565b6040805194855260208501939093529183015260608201526080015b60405180910390f35b61030f6108c3565b6040516102fe919061227c565b61032f61032a36600461228e565b610953565b60405190151581526020016102fe565b61032f61034d3660046122b6565b5f9081526005602052604090205460ff1690565b61036961096c565b6040516102fe9a999897969594939291906122cd565b6009545b6040519081526020016102fe565b61032f61039f366004612337565b610abf565b61038360185481565b6103836103bb366004612220565b6001600160a01b03165f9081526004602052604090205490565b6103e86103e3366004612220565b610ae2565b005b61032f610b62565b604051600681526020016102fe565b61038361040f366004612220565b6001600160a01b03165f9081526016602052604090205490565b600654151561032f565b61045a7f000000000000000000000000000000000000000000000000000000000000000081565b6040516001600160a01b0390911681526020016102fe565b61038360065481565b610383604681565b610383633b9aca0081565b601754610383565b61049e610b7e565b6040516102fe9190612370565b6104be6104b936600461228e565b610d56565b604080516001600160a01b0390961686526020860194909452928401919091526060830152608082015260a0016102fe565b6103e86104fe366004612428565b610daa565b610383610511366004612220565b6001600160a01b03165f9081526007602052604090205490565b6103e8611165565b6104be6105413660046122b6565b611178565b61055961055436600461228e565b6111c1565b6040516102fe919081516001600160a01b031681526020808301519082015260408083015190820152606080830151908201526080918201519181019190915260a00190565b6103836105ad366004612220565b60046020525f908152604090205481565b6103836105cc366004612220565b3f90565b6103e86105de36600461246a565b6112d6565b60025461045a906001600160a01b031681565b6001546001600160a01b031661045a565b6103e86114c1565b61030f6114d8565b60035461045a906001600160a01b031681565b610383610638366004612220565b6114e7565b61032f61064b36600461228e565b61152a565b6103e861065e366004612220565b611537565b6103836106713660046124a4565b61154b565b61032f610684366004612220565b6115e4565b6103836106973660046122b6565b611602565b6103e86106aa366004612220565b611638565b61032f6106bd3660046122b6565b60056020525f908152604090205460ff1681565b6103e86106df36600461228e565b6116f5565b6103e86106f23660046122b6565b611718565b61038361070536600461250e565b6001600160a01b039182165f90815260086020908152604080832093909416825291909152205490565b6103836117ec565b6103e8611803565b61032f61074d366004612220565b60196020525f908152604090205460ff1681565b6103e861076f366004612220565b611817565b6103836103e881565b5f805f8061079f856001600160a01b03165f9081526007602052604090205490565b6001600160a01b0386165f90815260166020908152604080832080548251818502810185019093528083529498509293909291849084015b8282101561083d575f8481526020908190206040805160a0810182526005860290920180546001600160a01b03168352600180820154848601526002820154928401929092526003810154606084015260040154608083015290835290920191016107d7565b5050505090505f5b8151811015610881578181815181106108605761086061253f565b602002602001015160400151856108779190612567565b9450600101610845565b506011546108918661271061257a565b61089b9190612591565b600f54909350612710906108af908661257a565b6108b99190612591565b9150509193509193565b6060600a80546108d2906125b0565b80601f01602080910402602001604051908101604052809291908181526020018280546108fe906125b0565b80156109495780601f1061092057610100808354040283529160200191610949565b820191905f5260205f20905b81548152906001019060200180831161092c57829003601f168201915b5050505050905090565b5f33610960818585611851565b60019150505b92915050565b600c8054819061097b906125b0565b80601f01602080910402602001604051908101604052809291908181526020018280546109a7906125b0565b80156109f25780601f106109c9576101008083540402835291602001916109f2565b820191905f5260205f20905b8154815290600101906020018083116109d557829003601f168201915b505050505090806001015490806002018054610a0d906125b0565b80601f0160208091040260200160405190810160405280929190818152602001828054610a39906125b0565b8015610a845780601f10610a5b57610100808354040283529160200191610a84565b820191905f5260205f20905b815481529060010190602001808311610a6757829003601f168201915b505050600384015460048501546005860154600687015460078801546008890154600990990154979894979396509194509260ff909116918a565b5f33610acc858285611863565b610ad78585856118df565b506001949350505050565b610aea61193c565b6001600160a01b038116610b115760405163e6c4247b60e01b815260040160405180910390fd5b600380546001600160a01b038381166001600160a01b0319831681179093556040519116919082907fc1ded5e7b2e884aee7a9307c075cf7a3c01d6fde38a5dcc91e833fe602c70199905f90a35050565b6013545f9060ff168015610b795750601154600954105b905090565b610bce604051806101400160405280606081526020015f8152602001606081526020015f81526020015f81526020015f81526020015f81526020015f151581526020015f81526020015f81525090565b600c604051806101400160405290815f82018054610beb906125b0565b80601f0160208091040260200160405190810160405280929190818152602001828054610c17906125b0565b8015610c625780601f10610c3957610100808354040283529160200191610c62565b820191905f5260205f20905b815481529060010190602001808311610c4557829003601f168201915b5050505050815260200160018201548152602001600282018054610c85906125b0565b80601f0160208091040260200160405190810160405280929190818152602001828054610cb1906125b0565b8015610cfc5780601f10610cd357610100808354040283529160200191610cfc565b820191905f5260205f20905b815481529060010190602001808311610cdf57829003601f168201915b505050918352505060038201546020820152600482015460408201526005820154606082015260068201546080820152600782015460ff16151560a0820152600882015460c082015260099091015460e090910152919050565b6016602052815f5260405f208181548110610d6f575f80fd5b5f918252602090912060059091020180546001820154600283015460038401546004909401546001600160a01b039093169550909350919085565b81610db481611969565b60135460ff16610dd757604051632214b61f60e11b815260040160405180910390fd5b633b9aca00821015610dfc57604051631578537b60e21b815260040160405180910390fd5b6012545f90610e0b9084612591565b90506127106103e8600c60050154610e23919061257a565b610e2d9190612591565b811115610e4d57604051633468be7960e01b815260040160405180910390fd5b60115481610e5a60095490565b610e649190612567565b1115610e8357604051637052492160e11b815260040160405180910390fd5b6040516323b872dd60e01b8152336004820152306024820152604481018490527f00000000000000000000000000000000000000000000000000000000000000006001600160a01b0316906323b872dd906064016020604051808303815f875af1158015610ef3573d5f803e3d5ffd5b505050506040513d601f19601f82011682018060405250810190610f1791906125ef565b610f345760405163a55b288760e01b815260040160405180910390fd5b610f3e3382611bf7565b6011545f90610f4f8361271061257a565b610f599190612591565b6040805160a0810182523380825260208083018781528385018a81524260608601908152608086018881525f868152601686528881208054600180820183559183528783208a51600592830290910180546001600160a01b03199081166001600160a01b039384161782558951828601558851600283015587516003830155865160049092019190915560178054948501815585528b517fc624b66cc0138b8fabc209247f72d758e1cf3343756d543badbf24212bed8c159490930293840180549091169290911691909117905594517fc624b66cc0138b8fabc209247f72d758e1cf3343756d543badbf24212bed8c1686015592517fc624b66cc0138b8fabc209247f72d758e1cf3343756d543badbf24212bed8c1785015590517fc624b66cc0138b8fabc209247f72d758e1cf3343756d543badbf24212bed8c18840155517fc624b66cc0138b8fabc209247f72d758e1cf3343756d543badbf24212bed8c19909201919091559182526019905291909120549192509060ff1661110657335f908152601960205260408120805460ff1916600117905560188054916111008361260a565b91905055505b6040805133808252602082018690528183018890526060820185905242608083015291880135918835917fd3eb5ec696f68444f84e3e32407d4c08a673aac72824eb375c628597713ffd0e9060a00160405180910390a4505050505050565b61116d61193c565b6111765f611c2f565b565b60178181548110611187575f80fd5b5f918252602090912060059091020180546001820154600283015460038401546004909401546001600160a01b0390931694509092909185565b6111f76040518060a001604052805f6001600160a01b031681526020015f81526020015f81526020015f81526020015f81525090565b6001600160a01b0383165f9081526016602052604090205482106112525760405162461bcd60e51b815260206004820152600d60248201526c092dcecc2d8d2c840d2dcc8caf609b1b60448201526064015b60405180910390fd5b6001600160a01b0383165f90815260166020526040902080548390811061127b5761127b61253f565b5f9182526020918290206040805160a081018252600590930290910180546001600160a01b03168352600181015493830193909352600283015490820152600382015460608201526004909101546080820152905092915050565b806112e081611969565b5f6112ee6080840184612622565b8101906112fb9190612732565b90506046815f01511015611322576040516315f0caef60e31b815260040160405180910390fd5b80606001515f036113455760405162f492a760e11b815260040160405180910390fd5b6040805180820190915260068152651253959154d560d21b602091820152608082015180519101207f88970ec936c5c77d9657d854f3aba4563c32c528a1e3bf7b8d2a09908e191234146113ac576040516346fabdab60e11b815260040160405180910390fd5b6060810151600d556040810151600e906113c69082612826565b506020810151600f55805160105560608101516113ec90670de0b6b3a764000090612591565b601155620f42406012556013805460ff1916600117905542601481905560155560608101516040828101516020840151845160808601518451948901359589359533957ff19f20860ef7c2238b52fdcac27f8010eae3544a16c9ea01211819af4a0bf2069561146395600c9592939192909161295f565b60405180910390a4600d5460115460125460408051908701359387359333937f6928ff194f2d439ee50b5d743fc85d82b4399af1d2d506038ee8c435016ef1cf936114b493600c93909290916129b6565b60405180910390a4505050565b6114c961193c565b6013805460ff19166001179055565b6060600b80546108d2906125b0565b6011545f9081036114f957505f919050565b6011546001600160a01b0383165f908152600760205260409020546115209061271061257a565b6109669190612591565b5f336109608185856118df565b61153f61193c565b61154881611c80565b50565b5f8383356020850135604086013561156660608801886129e4565b604051602001611577929190612a94565b60408051601f19818403018152919052805160209091012061159c6080890189612622565b6115ac60c08b0160a08c01612b44565b896040516020016115c599989796959493929190612b5f565b6040516020818303038152906040528051906020012090509392505050565b6006545f90823f90811480156115fb575060065415155b9392505050565b6013545f9060ff1661162757604051631ed84fa160e01b815260040160405180910390fd5b600f5461271090611520908461257a565b6001546001600160a01b0316331480159061165e57506003546001600160a01b03163314155b1561167c57604051635c427cd960e01b815260040160405180910390fd5b6001600160a01b0381166116a35760405163e6c4247b60e01b815260040160405180910390fd5b600280546001600160a01b038381166001600160a01b031983168117909355604051911691339183907fb659f04626597961e33b3345b88799f112d62f49db80f9dfced83f1db86059b5905f90a45050565b6116fd61193c565b6001600160a01b039091165f90815260046020526040902055565b61172061193c565b7f00000000000000000000000000000000000000000000000000000000000000006001600160a01b031663a9059cbb6117616001546001600160a01b031690565b6040516001600160e01b031960e084901b1681526001600160a01b039091166004820152602481018490526044016020604051808303815f875af11580156117ab573d5f803e3d5ffd5b505050506040513d601f19601f820116820180604052508101906117cf91906125ef565b6115485760405163a55b288760e01b815260040160405180910390fd5b5f6117f660095490565b601154610b799190612bc1565b61180b61193c565b6013805460ff19169055565b61181f61193c565b6001600160a01b03811661184857604051631e4fbdf760e01b81525f6004820152602401611249565b61154881611c2f565b61185e8383836001611d4e565b505050565b6001600160a01b038381165f908152600860209081526040808320938616835292905220545f198110156118d957818110156118cb57604051637dc7a0d960e11b81526001600160a01b03841660048201526024810182905260448101839052606401611249565b6118d984848484035f611d4e565b50505050565b6001600160a01b03831661190857604051634b637e8f60e11b81525f6004820152602401611249565b6001600160a01b0382166119315760405163ec442f0560e01b81525f6004820152602401611249565b61185e838383611e20565b6001546001600160a01b031633146111765760405163118cdaa760e01b8152336004820152602401611249565b611971611f46565b611979611f6e565b335f908152600460205260409020548135146119a857604051633ab3447f60e11b815260040160405180910390fd5b80602001354211156119cd57604051630f05f5bf60e01b815260040160405180910390fd5b5f338235602084013560408501356119e860608701876129e4565b6040516020016119f9929190612a94565b60408051601f198184030181529190528051602090910120611a1e6080880188612622565b611a2e60c08a0160a08b01612b44565b5f356001600160e01b031916604051602001611a5299989796959493929190612b5f565b60408051601f1981840301815291815281516020928301205f818152600590935291205490915060ff1615611a9a57604051634a8478f960e11b815260040160405180910390fd5b7f19457468657265756d205369676e6564204d6573736167653a0a3332000000005f908152601c829052603c812090611b15611ad960c0860186612622565b8080601f0160208091040260200160405190810160405280939291908181526020018383808284375f9201919091525086939250506120149050565b6002549091506001600160a01b03808316911614611b4657604051638baa579f60e01b815260040160405180910390fd5b335f908152600460205260408120805491611b608361260a565b90915550505f838152600560205260409020805460ff1916600117905560025433906001600160a01b03167fd7bce872b861b0862977bd7cb13080ae07a63614c3978fd7bd6ba3bffa4b87858635611bbb6080890189612622565b604051611bc9929190612bd4565b604051908190038120611be3928252602082015260400190565b60405180910390a350505061154860015f55565b6001600160a01b038216611c205760405163ec442f0560e01b81525f6004820152602401611249565b611c2b5f8383611e20565b5050565b600180546001600160a01b038381166001600160a01b0319831681179093556040519116919082907f8be0079c531659141344cd1fd0a4f28419497f9722a3daafe3b4186f6b6457e0905f90a35050565b803f801580611cae57507fc5d2460186f7233c927e7db2dcc703c0e500b653ca82273b7bfad8045d85a47081145b15611ccc57604051633c11a9c560e21b815260040160405180910390fd5b60405161ef0160f01b60208201526bffffffffffffffffffffffff19606084901b1660238201525f9060370160408051601f1981840301815290829052805160208201206006819055909250906001600160a01b038516907f5b1390f119226218b27296b195e4447b856827c4d713c7cb924a278080112e7c905f90a3505050565b6001600160a01b038416611d775760405163e602df0560e01b81525f6004820152602401611249565b6001600160a01b038316611da057604051634a1406b160e11b81525f6004820152602401611249565b6001600160a01b038085165f90815260086020908152604080832093871683529290522082905580156118d957826001600160a01b0316846001600160a01b03167f8c5be1e5ebec7d5bd14f71427d1e84f3dd0314c0f7b2291e5b200ac8c7c3b92584604051611e1291815260200190565b60405180910390a350505050565b6001600160a01b038316611e4a578060095f828254611e3f9190612567565b90915550611eba9050565b6001600160a01b0383165f9081526007602052604090205481811015611e9c5760405163391434e360e21b81526001600160a01b03851660048201526024810182905260448101839052606401611249565b6001600160a01b0384165f9081526007602052604090209082900390555b6001600160a01b038216611ed657600980548290039055611ef4565b6001600160a01b0382165f9081526007602052604090208054820190555b816001600160a01b0316836001600160a01b03167fddf252ad1be2c89b69c2b068fc378daa952ba7f163c4a11628f55a4df523b3ef83604051611f3991815260200190565b60405180910390a3505050565b60025f5403611f6857604051633ee5aeb560e01b815260040160405180910390fd5b60025f55565b600654611f8e57604051632412377b60e11b815260040160405180910390fd5b333f5f819003611fb157604051633c11a9c560e21b815260040160405180910390fd5b7fc5d2460186f7233c927e7db2dcc703c0e500b653ca82273b7bfad8045d85a470819003611ff257604051633c11a9c560e21b815260040160405180910390fd5b60065481146115485760405163340aafcd60e11b815260040160405180910390fd5b5f805f80612022868661203c565b9250925092506120328282612085565b5090949350505050565b5f805f8351604103612073576020840151604085015160608601515f1a6120658882858561213d565b95509550955050505061207e565b505081515f91506002905b9250925092565b5f82600381111561209857612098612be3565b036120a1575050565b60018260038111156120b5576120b5612be3565b036120d35760405163f645eedf60e01b815260040160405180910390fd5b60028260038111156120e7576120e7612be3565b036121085760405163fce698f760e01b815260048101829052602401611249565b600382600381111561211c5761211c612be3565b03611c2b576040516335e2f38360e21b815260048101829052602401611249565b5f80807f7fffffffffffffffffffffffffffffff5d576e7357a4501ddfe92f46681b20a084111561217657505f915060039050826121fb565b604080515f808252602082018084528a905260ff891692820192909252606081018790526080810186905260019060a0016020604051602081039080840390855afa1580156121c7573d5f803e3d5ffd5b5050604051601f1901519150506001600160a01b0381166121f257505f9250600191508290506121fb565b92505f91508190505b9450945094915050565b80356001600160a01b038116811461221b575f80fd5b919050565b5f60208284031215612230575f80fd5b6115fb82612205565b5f81518084525f5b8181101561225d57602081850181015186830182015201612241565b505f602082860101526020601f19601f83011685010191505092915050565b602081525f6115fb6020830184612239565b5f806040838503121561229f575f80fd5b6122a883612205565b946020939093013593505050565b5f602082840312156122c6575f80fd5b5035919050565b5f6101408083526122e08184018e612239565b90508b602084015282810360408401526122fa818c612239565b606084019a909a525050608081019690965260a086019490945260c0850192909252151560e0840152610100830152610120909101529392505050565b5f805f60608486031215612349575f80fd5b61235284612205565b925061236060208501612205565b9150604084013590509250925092565b602081525f825161014080602085015261238e610160850183612239565b9150602085015160408501526040850151601f198584030160608601526123b58382612239565b92505060608501516080850152608085015160a085015260a085015160c085015260c085015160e085015260e08501516101006123f58187018315159052565b860151610120868101919091529095015193019290925250919050565b5f60e08284031215612422575f80fd5b50919050565b5f8060408385031215612439575f80fd5b823567ffffffffffffffff81111561244f575f80fd5b61245b85828601612412565b95602094909401359450505050565b5f6020828403121561247a575f80fd5b813567ffffffffffffffff811115612490575f80fd5b61249c84828501612412565b949350505050565b5f805f606084860312156124b6575f80fd5b6124bf84612205565b9250602084013567ffffffffffffffff8111156124da575f80fd5b6124e686828701612412565b92505060408401356001600160e01b031981168114612503575f80fd5b809150509250925092565b5f806040838503121561251f575f80fd5b61252883612205565b915061253660208401612205565b90509250929050565b634e487b7160e01b5f52603260045260245ffd5b634e487b7160e01b5f52601160045260245ffd5b8082018082111561096657610966612553565b808202811582820484141761096657610966612553565b5f826125ab57634e487b7160e01b5f52601260045260245ffd5b500490565b600181811c908216806125c457607f821691505b60208210810361242257634e487b7160e01b5f52602260045260245ffd5b8015158114611548575f80fd5b5f602082840312156125ff575f80fd5b81516115fb816125e2565b5f6001820161261b5761261b612553565b5060010190565b5f808335601e19843603018112612637575f80fd5b83018035915067ffffffffffffffff821115612651575f80fd5b602001915036819003821315612665575f80fd5b9250929050565b634e487b7160e01b5f52604160045260245ffd5b60405160a0810167ffffffffffffffff811182821017156126a3576126a361266c565b60405290565b5f82601f8301126126b8575f80fd5b813567ffffffffffffffff808211156126d3576126d361266c565b604051601f8301601f19908116603f011681019082821181831017156126fb576126fb61266c565b81604052838152866020858801011115612713575f80fd5b836020870160208301375f602085830101528094505050505092915050565b5f60208284031215612742575f80fd5b813567ffffffffffffffff80821115612759575f80fd5b9083019060a0828603121561276c575f80fd5b612774612680565b8235815260208301356020820152604083013582811115612793575f80fd5b61279f878286016126a9565b604083015250606083013560608201526080830135828111156127c0575f80fd5b6127cc878286016126a9565b60808301525095945050505050565b601f82111561185e57805f5260205f20601f840160051c810160208510156128005750805b601f840160051c820191505b8181101561281f575f815560010161280c565b5050505050565b815167ffffffffffffffff8111156128405761284061266c565b6128548161284e84546125b0565b846127db565b602080601f831160018114612887575f84156128705750858301515b5f19600386901b1c1916600185901b1785556128de565b5f85815260208120601f198616915b828110156128b557888601518255948401946001909101908401612896565b50858210156128d257878501515f19600388901b60f8161c191681555b505060018460011b0185555b505050505050565b5f81546128f2816125b0565b80855260206001838116801561290f576001811461292957612954565b60ff1985168884015283151560051b880183019550612954565b865f52825f205f5b8581101561294c5781548a8201860152908301908401612931565b890184019650505b505050505092915050565b60c081525f61297160c08301896128e6565b87602084015282810360408401526129898188612239565b905085606084015284608084015282810360a08401526129a98185612239565b9998505050505050505050565b608081525f6129c860808301876128e6565b6020830195909552506040810192909252606090910152919050565b5f808335601e198436030181126129f9575f80fd5b83018035915067ffffffffffffffff821115612a13575f80fd5b6020019150600581901b3603821315612665575f80fd5b5f808335601e19843603018112612a3f575f80fd5b830160208101925035905067ffffffffffffffff811115612a5e575f80fd5b803603821315612665575f80fd5b81835281816020850137505f828201602090810191909152601f909101601f19169091010190565b60208082528181018390525f906040808401600586901b8501820187855b88811015612b3657878303603f190184528135368b9003605e19018112612ad7575f80fd5b8a01803584526060612aeb88830183612a2a565b828a880152612afd8388018284612a6c565b92505050612b0d87830183612a2a565b925085820388870152612b21828483612a6c565b96890196955050509186019150600101612ab2565b509098975050505050505050565b5f60208284031215612b54575f80fd5b81356115fb816125e2565b6bffffffffffffffffffffffff198a60601b1681528860148201528760348201528660548201528560748201528385609483013791151560f81b9290910160948101929092526001600160e01b03191660958201526099019695505050505050565b8181038181111561096657610966612553565b818382375f9101908152919050565b634e487b7160e01b5f52602160045260245ffdfea26469706673582212208f948fcfed3b91f78495d93921750a9308abc6d0572a4395e7b6de8139b09e1d64736f6c63430008170033","linkReferences":{}},"methodIdentifiers":{"MAX_SINGLE_PURCHASE_PCT()":"f916948a","MIN_CONFIDENCE()":"41f93757","MIN_INVESTMENT()":"4ef8ff33","allInvestments(uint256)":"76ca3f61","allowance(address,address)":"dd62ed3e","approve(address,uint256)":"095ea7b3","balanceOf(address)":"70a08231","calculateExpectedReturn(uint256)":"c7ee8b43","decimals()":"313ce567","delegatedAccountCodeHash()":"40110535","emergencyResetNonce(address,uint256)":"daafc3a2","getAuthorizationHash(address,(uint256,uint256,bytes32,(bytes32,bytes,bytes)[],bytes,bool,bytes),bytes4)":"ac1d92a1","getAvailableTokens()":"e35568cb","getCodeHash(address)":"81ea4408","getInvestmentSummary(address)":"0434c8c2","getInvestorRecord(address,uint256)":"78044042","getInvestorRecordCount(address)":"3545b6dc","getNonce(address)":"2d0335ab","getOwnershipPercentage(address)":"a2931fe8","getPropertyInfo()":"5de5f3be","getTotalInvestmentCount()":"56914d5b","hasInvested(address)":"edb9a5c0","investorRecords(address,uint256)":"650e71e3","isAuthorizationUsed(bytes32)":"14335b8d","isDelegatedAccount(address)":"b80a852c","isDelegatedAccountSet()":"3dacd33c","isInvestmentAvailable()":"2fcb61ff","masterKey()":"8afe35b9","name()":"06fdde03","nonces(address)":"7ecebe00","owner()":"8da5cb5b","pauseInvestments()":"ea3ad4a3","property()":"176fd3f0","purchaseTokens((uint256,uint256,bytes32,(bytes32,bytes,bytes)[],bytes,bool,bytes),uint256)":"6f84329f","recoveryKey()":"97905a88","renounceOwnership()":"715018a6","resumeInvestments()":"912c6769","setDelegatedAccountImplementation(address)":"ab17e337","submitPropertyAnalysis((uint256,uint256,bytes32,(bytes32,bytes,bytes)[],bytes,bool,bytes))":"832d7e69","symbol()":"95d89b41","totalInvestors()":"29b8caff","totalSupply()":"18160ddd","transfer(address,uint256)":"a9059cbb","transferFrom(address,address,uint256)":"23b872dd","transferOwnership(address)":"f2fde38b","updateMasterKey(address)":"c99c35d8","updateRecoveryKey(address)":"2eb40090","usdc()":"3e413bee","usedAuthorizations(bytes32)":"d5a1780b","withdrawUSDC(uint256)":"db81f99b"},"id":48}